:020000040800F2
:1000000000000824514B0008493900085139000804
:1000100059390008613900086939000800000000FA
:100020000000000000000000000000001152010864
:100030007139000800000000A15401089D26010844
:10004000A54B0008A54B0008A54B0008A54B0008D0
:10005000A54B0008A54B0008A54B0008A54B0008C0
:10006000A54B0008A54B0008A54B000881390008E6
:1000700095390008A9390008BD390008D1390008B0
:10008000E5390008F9390008A54B00080D3A0008C9
:10009000A54B0008A54B0008A54B0008A54B000880
:1000A000A54B0008A54B0008A54B0008A54B000870
:1000B000A54B0008A54B0008A54B0008A54B000860
:1000C000A54B0008A54B0008A54B0008A54B000850
:1000D000A54B0008213A0008353A0008413A0008CB
:1000E000A54B0008A54B000800000000A54B000828
:1000F000A54B0008A54B0008A54B0008A54B000820
:10010000A54B0008A54B0008A54B0008A54B00080F
:10011000553A000821380008693A0008A54B000844
:10012000A54B0008A54B0008A54B0008A54B0008EF
:10013000A54B0008A54B0008A54B0008A54B0008DF
:1001400000000000000000000000000000000000AF
:10015000A54B0008A54B0008A54B0008A54B0008BF
:10016000A54B0008A54B0008A54B0008A54B0008AF
:10017000A54B0008A54B0008A54B00080000000097
:10018000A54B0008A54B0008A54B0008A54B00088F
:10019000A54B0008A54B0008A54B0008A54B00087F
:1001A000A54B0008A54B0008A54B0008A54B00086F
:1001B000A54B0008A54B0008A54B0008A54B00085F
:1001C000A54B0008A54B0008A54B0008A54B00084F
:1001D000A54B0008A54B0008A54B0008A54B00083F
:1001E000A54B0008A54B0008A54B0008A54B00082F
:1001F000A54B0008A54B0008A54B0008A54B00081F
:10020000A54B0008A54B0008A54B0008A54B00080E
:10021000A54B0008A54B0008A54B0008A54B0008FE
:10022000A54B0008A54B0008A54B000800000000E6
:10023000A54B0008A54B000800000000A54B0008D6
:10024000A54B0008A54B0008A54B0008A54B0008CE
:10025000A54B0008A54B0008A54B0008A54B0008BE
:10026000A54B0008A54B0008A54B0008A54B0008AE
:10027000A54B0008A54B0008A54B00080000000096
:10028000A54B0008A54B0008A54B00080000000086
:0802900000000000A54B00086E
:1002A00010B5054C237833B9044B13B10448AFF3B0
:1002B00000800123237010BD80090024000000008D
:1002C0006473020808B5034B1BB103490348AFF33D
:1002D000008008BD00000000840900246473020847
:1002E00010F8012B11F8013B012A28BF9A42F7D0E0
:1002F000D01A7047034613F8012B002AFBD1181AB5
:1003000001387047000000000000000000000000FD
:1003100001F0FF01102A2BDB10F0070F08D010F8B6
:10032000013B013A8B422DD010F0070F42B3F6D1BA
:10033000F0B441EA012141EA014122F007047FF0D3
:1003400000070023F0E80256083C85EA010586EA2A
:10035000010685FA47F5A3FA87F586FA47F6A5FA66
:1003600087F68EB9EED1F0BC01F0FF0102F0070272
:1003700032B110F8013B013A83EA010313B1F8D11D
:100380000020704701387047002D06BF35460338FE
:10039000073815F0010F07D1013015F4807F02BF37
:1003A000013015F4C03F0130F0BC0138704700BF88
:1003B00081F0004102E000BF83F0004330B54FEA16
:1003C00041044FEA430594EA050F08BF90EA020F83
:1003D0001FBF54EA000C55EA020C7FEA645C7FEA16
:1003E000655C00F0E2804FEA5454D4EB5555B8BF39
:1003F0006D420CDD2C4480EA020281EA030382EAAA
:10040000000083EA010180EA020281EA0303362D3B
:1004100088BF30BD11F0004F4FEA01314FF4801C0E
:100420004CEA113102D0404261EB410113F0004F20
:100430004FEA03334CEA133302D0524263EB4303D7
:1004400094EA050F00F0A780A4F10104D5F1200E75
:100450000DDB02FA0EFC22FA05F2801841F10001D0
:1004600003FA0EF2801843FA05F359410EE0A5F1A4
:1004700020050EF1200E012A03FA0EFC28BF4CF0D5
:10048000020C43FA05F3C01851EBE37101F000458B
:1004900007D54FF0000EDCF1000C7EEB00006EEB98
:1004A0000101B1F5801F1BD3B1F5001F0CD3490822
:1004B0005FEA30004FEA3C0C04F101044FEA445279
:1004C00012F5800F80F09A80BCF1004F08BF5FEA00
:1004D000500C50F1000041EB045141EA050130BDE0
:1004E0005FEA4C0C404141EB0101013C28BFB1F5F2
:1004F000801FE9D291F0000F04BF01460020B1FA3D
:1005000081F308BF2033A3F10B03B3F120020CDA0F
:100510000C3208DD02F1140CC2F10C0201FA0CF0ED
:1005200021FA02F10CE002F11402D8BFC2F1200C52
:1005300001FA02F120FA0CFCDCBF41EA0C01904008
:10054000E41AA2BF01EB0451294330BD6FEA040451
:100550001F3C1CDA0C340EDC04F11404C4F120023C
:1005600020FA04F001FA02F340EA030021FA04F34E
:1005700045EA030130BDC4F10C04C4F1200220FAA5
:1005800002F001FA04F340EA0300294630BD21FAE3
:1005900004F0294630BD94F0000F83F4801306BFA9
:1005A00081F480110134013D4EE77FEA645C18BF9D
:1005B0007FEA655C29D094EA050F08BF90EA020F34
:1005C00005D054EA000C04BF1946104630BD91EA2C
:1005D000030F1EBF0021002030BD5FEA545C05D12F
:1005E0004000494128BF41F0004130BD14F580046E
:1005F0003CBF01F5801130BD01F0004545F0FE41E2
:1006000041F470014FF0000030BD7FEA645C1ABF16
:10061000194610467FEA655C1CBF0B46024650EA4D
:10062000013406BF52EA033591EA030F41F4002179
:1006300030BD00BF90F0000F04BF0021704730B5FF
:100640004FF4806404F132044FF000054FF00001D4
:1006500050E700BF90F0000F04BF0021704730B595
:100660004FF4806404F1320410F0004548BF40426A
:100670004FF000013EE700BF42004FEAE2014FEABF
:1006800031014FEA02701FBF12F07F4393F07F4F9A
:1006900081F06051704732F07F4208BF704793F09D
:1006A0007F4F04BF41F40021704730B54FF46074B0
:1006B00001F0004521F000411CE700BF50EA0102B3
:1006C00008BF704730B54FF000050AE050EA01025C
:1006D00008BF704730B511F0004502D5404261EBCC
:1006E00041014FF4806404F132045FEA915C3FF40D
:1006F000D8AE4FF003025FEADC0C18BF03325FEAAA
:10070000DC0C18BF033202EBDC02C2F1200300FA5A
:1007100003FC20FA02F001FA03FE40EA0E0021FA7F
:1007200002F11444BDE600BF7BB972B90029BEBF17
:1007300000204FF0004106E008BF00281CBF6FF00A
:1007400000414FF0FF3000F0D3B9ADF1080C6DE976
:1007500004CE002909DB002B1ADB00F04DF8DDF890
:1007600004E0DDE9022304B07047404261EB41013F
:10077000002B1BDB00F040F8DDF804E0DDE902238C
:1007800004B0404261EB4101524263EB43037047C6
:10079000524263EB430300F02FF8DDF804E0DDE99B
:1007A000022304B0404261EB41017047524263EBC7
:1007B000430300F021F8DDF804E0DDE9022304B092
:1007C000524263EB4303704753B94AB9002908BF4B
:1007D00000281CBF4FF0FF314FF0FF3000F088B908
:1007E000ADF1080C6DE904CE00F006F8DDF804E088
:1007F000DDE9022304B070472DE9F047089D0F465C
:1008000004468C46002B48D18A42164661D9B2FA7A
:1008100082F34BB1C3F1200201FA03FC20FA02F289
:100820009E4042EA0C0C9C404FEA164EB7B2BCFB0D
:10083000FEF1220C0EFB11CC42EA0C4201FB07F048
:10084000904209D9B21801F1FF3C80F0EE8090424D
:1008500040F2EB8002393244121AA4B2B2FBFEF02D
:100860000EFB102244EA024400FB07F7A74209D915
:10087000341900F1FF3280F0DA80A74240F2D780CD
:100880003444023840EA0140E41B00211DB1DC4041
:100890000023C5E90043BDE8F0878B4206D90DB1BE
:1008A000C5E9000100210846BDE8F087B3FA83F1ED
:1008B000002948D1BB4202D3824200F20781841A48
:1008C00067EB030201209446002DE4D0C5E9004CFB
:1008D000E1E7002A00F09280B2FA82F3002B40F0A8
:1008E000A8808A1A4FEA164E1FFA86FC0121200CB6
:1008F000B2FBFEF70EFB172240EA02420CFB07F0A8
:10090000904207D9B21807F1FF3802D2904200F2A4
:10091000E2804746121AA4B2B2FBFEF00EFB102290
:1009200044EA02440CFB00FCA44507D9341900F149
:10093000FF3202D2A44500F2CB801046A4EB0C0497
:1009400040EA0740A2E7C1F120068B4022FA06FCEC
:100950004CEA030C07FA01F420FA06F3F7404FEAD9
:100960001C49234300FA01F81FFA8CFEB7FBF9F08B
:100970001C0C09FB107744EA074400FB0EF7A74262
:1009800002FA01F20AD91CEB040400F1FF3A80F0EC
:100990009B80A74240F2988002386444E41B9FB2D7
:1009A000B4FBF9F309FB134447EA044403FB0EFECE
:1009B000A64509D91CEB040403F1FF3780F08280BF
:1009C000A6457FD9023B644443EA0040A4EB0E04F1
:1009D000A0FB02E7BC427346B94663D360D05DB169
:1009E000B8EB030264EB090404FA06F622FA01F3F9
:1009F0001E43CC40C5E9006400214CE7620848086A
:100A000042EAC1710B0C43EA00438AB242EA034254
:100A1000B3FBF6F1E407B4463746B6461F23B0FBF6
:100A2000F6F0D21B41EA004161E7614614E7104647
:100A300028E7C3F1200120FA01F29E4027FA01F1D4
:100A40009F403A434FEA164E1FFA86FCB1FBFEF771
:100A50000EFB1710110C41EA004107FB0CF888450A
:100A600004FA03F43AD9711807F1FF3001D288452E
:100A70001FD8A1EB0801B1FBFEF808FB0CF70EFB39
:100A8000181192B242EA0142BA422FD2B21808F1CA
:100A9000FF31C6D2BA42C4D2A8F102013244C0E743
:100AA000F0459CD2BEEB020367EB0C070138B94658
:100AB00095E7A6EB08084144B81EB1FBFEF808FB19
:100AC0000CF7DCE73B467FE7504667E70846FBE666
:100AD0003444023832E7023F32441BE7A1EB0801FD
:100AE0003846B1FBFEF808FB0CF7C8E7414698E72B
:100AF000704700BF80B58AB000AF07F11C03002229
:100B00001A605A609A603B4600221A605A609A60E6
:100B1000DA601A615A619A61384B394A1A60374B68
:100B200000225A60354B08229A60344B0122DA6069
:100B3000324B08221A61314B00221A752F4B0122C9
:100B40005A752E4B02229A612C4B00221A772B4B9E
:100B500000225A62294B00229A62284B0022DA6254
:100B6000264B00221A63254B00225A63234B002296
:100B700083F83820214B0122DA63204804F03AFA46
:100B80000346002B01D002F067FA0023FB6107F156
:100B90001C031946194804F0F1FF0346002B01D04D
:100BA00002F05AFA174B3B6006237B600523BB60BB
:100BB00040F2FF73FB6004233B6100237B61002351
:100BC0007B763B4619460D4804F0B6FB0346002BE6
:100BD00001D002F041FA0C4B3B600C237B603B469A
:100BE0001946064804F0A8FB0346002B01D002F08A
:100BF00033FA00BF2837BD4680BD00BF9C090024E2
:100C000000200240040060080800900C80B58AB003
:100C100000AF786007F1140300221A605A609A60EE
:100C2000DA601A617B681B683E4A934275D13E4B7D
:100C3000D3F8D8303C4A43F02003C2F8D8303A4BBE
:100C4000D3F8D83003F020033B613B69364BD3F82F
:100C5000E030354A43F00103C2F8E030324BD3F8BC
:100C6000E03003F00103FB60FB682F4BD3F8E0306A
:100C70002D4A43F02003C2F8E0302B4BD3F8E0308C
:100C800003F02003BB60BB6840237B610323BB618F
:100C90000023FB6107F114031946244809F090FC76
:100CA0004FF400637B610323BB610023FB6107F109
:100CB000140319461E4809F083FC1E4B1E4A1A6095
:100CC0001C4B09225A601B4B00229A60194B0022D0
:100CD000DA60184B4FF480621A61164B4FF40062D1
:100CE0005A61144B4FF400529A61124B4FF48072C8
:100CF000DA61104B00221A620E4B00225A620D4834
:100D000005F0A4F90346002B01D002F0A5F97B6899
:100D1000084ADA64074A7B68936300BF2837BD46F8
:100D200080BD00BF0020024000440258000002586D
:100D300000140258000A0024A000024080B485B0CC
:100D400000AF78600E4B1B680E4AA2FB03239B0C7E
:100D50007A6802FB03F3DB08FB60FB68002B03D11E
:100D60000123FB6000E000BFFB685A1EFA60002B05
:100D7000F9D100BF00BF1437BD465DF8047B704752
:100D80000C00002483DE1B4380B586B000AFF86002
:100D90007B600B46FB721346BB720023FB7500237E
:100DA000BB750023BB827B68002B01D103230AE1C2
:100DB00007F113030121184600F042FA0346002B05
:100DC00010D10120FFF7BAFFBB8A0133BB82BB8A77
:100DD000B3F57A7F40F0F5800023BB827B68013B4E
:100DE0007B60EEE0FB7D162B00F2D68001A252F86C
:100DF00023F000BF510E0008730E0008DD0E00083E
:100E0000990F00080B0F0008990F0008990F0008B0
:100E1000990F0008450F0008990F0008990F000866
:100E2000990F0008990F0008990F0008990F000802
:100E3000990F0008990F0008990F0008990F0008F2
:100E4000990F0008990F0008990F0008830F0008F8
:100E5000FB7C552B0AD1FA7CFB681A70FB681A7868
:100E6000FB6883F820200123FB7599E00023FB75C4
:100E700096E0BB7A002B02D0012B16D02BE0FB7C36
:100E8000552B0FD1FA7CFB685A70FB6893F8202031
:100E9000FB685B781344DAB2FB6883F820200223F6
:100EA000FB751AE00023FB7517E0FB7CAF2B0FD11D
:100EB000FA7CFB685A70FB6893F82020FB685B782B
:100EC0001344DAB2FB6883F820200223FB7504E0A8
:100ED0000023FB7501E0022375E061E0FB7CFA7AF8
:100EE0009A420FD1FA7CFB689A70FB6893F8202035
:100EF000FB689B781344DAB2FB6883F82020042354
:100F0000FB754DE00023FB754AE0FB7C1C2B02D9EE
:100F10000023FB7544E0FA7CFB68DA70FB6893F809
:100F20002020FB68DB781344DAB2FB6883F82020CA
:100F3000FB68DB78002B02D11623FB7530E0082319
:100F4000FB752DE0BB7DF97CFA6813440A461A71E3
:100F5000FB6893F82020BB7DF9680B441B79134490
:100F6000DAB2FB6883F82020BB7D0133BB75FB68D8
:100F7000DB78BA7D9A4212D10023BB751623FB752C
:100F80000DE0FB6893F82020FB7C9A4201D10023FE
:100F900019E00023FB7503E00023FB7500E000BFB0
:100FA0000120FFF7CBFEBB8A0133BB82BB8AB3F5BE
:100FB0007A7F7FF4F8AE0023BB827B68013B7B60C5
:100FC000F1E600BFEFE618461837BD4680BD00BF0A
:100FD00080B590B000AF0346B9607A60FB7307F14B
:100FE000100321220021184624F0B3F9552387F875
:100FF0003430AF2387F83530FB7B63F07F03DBB2FF
:1010000087F83630012387F83730002387F83830E7
:1010100097F8342097F835301344DAB297F8363021
:101020001344DAB297F837301344DAB297F838300D
:101030001344DBB287F8393007F134030621184630
:1010400000F060F9F97B07F110007B680122FFF7DF
:101050009BFE034687F83E3097F83E30002B01D0C8
:10106000002319E0002387F83F300FE097F83F2076
:1010700097F83F30B9680B4440323A4412F82C2CB0
:101080001A7097F83F30013387F83F30FB7C97F8B0
:101090003F209A42EAD3FB7C18464037BD4680BDCC
:1010A00080B584B000AF7860786800F041F96422C0
:1010B0000D490320FFF78CFF0346FB73FB7B002BDE
:1010C00001D101230CE0642208490420FFF780FFCE
:1010D0000346FB73FB7B002B01D1012300E00023BF
:1010E00018461037BD4680BD780A0024790A0024CE
:1010F00080B58CB000AF7860396007F10C03212215
:101100000021184624F025F97B68002B01D101232A
:1011100052E007F10C003B6800220121FFF734FE8A
:10112000034687F82F3097F82F30002B01D001238A
:1011300042E07B7C1BB21B021BB21A463B7C134372
:1011400007EE903AB8EEE77ADFED1D6AC7EE267A31
:101150009FED1C7A67EE877A7B68C3ED007AFB7C93
:101160001BB21B021BB21A46BB7C134307EE903A1C
:10117000B8EEE77ADFED126AC7EE267A9FED117AB4
:1011800067EE877A7B68C3ED017A7B7D1BB21B0219
:101190001BB21A463B7D134307EE903AB8EEE77A4E
:1011A000DFED076AC7EE267A9FED067A67EE877A4B
:1011B0007B68C3ED027A002318463037BD4680BDF8
:1011C000000000470000344380B485B000AF786071
:1011D0000B467B807B68002B04D0184BB3F8803023
:1011E000002B01D1012323E00023FB811BE0FB89BD
:1011F0007A681344114AB2F8842019780F4B995435
:101200000E4BB3F8843001330C4AB2F88020B3FBA4
:10121000F2F101FB02F29B1A9AB2084BA3F8842068
:10122000FB890133FB81FA897B889A42DFD3002353
:1012300018461437BD465DF8047B70477C0A0024CD
:1012400080B485B000AF78600B467B807B68002B54
:1012500004D02B4BB3F88030002B01D1002348E0A1
:10126000274BB3F88420264BB3F882309A4208D338
:10127000234BB3F88420224BB3F88230D31AFB817E
:101280000CE01F4BB3F880201D4BB3F88230D31A0B
:101290009AB21B4BB3F884301344FB817A88FB89E4
:1012A0009A4201D9FB897B800023BB811CE0144B4F
:1012B000B3F882301946BB897A681344104A525CED
:1012C0001A700F4BB3F8823001330D4AB2F8802008
:1012D000B3FBF2F101FB02F29B1A9AB2084BA3F89E
:1012E0008220BB890133BB81BA897B889A42DED3D5
:1012F0007B8818461437BD465DF8047B704700BFF5
:101300007C0A002480B582B000AF78600B46FB7089
:10131000064B1868FB789AB24FF0FF3379680DF0EE
:1013200044FF00BF0837BD4680BD00BF0000002459
:1013300080B582B000AF78603B4B3C4A1A603C4BB2
:101340008022A3F880203A4B0022A3F88220384B59
:101350000022A3F88420344B1B68364A1A60324BB3
:101360001B687A685A60304B1B6800229A602E4BCB
:101370001B680022DA602C4B1B6800221A612A4B82
:101380001B680C225A61284B1B6800229A61264B6D
:101390001B680022DA61244B1B6800221A62224B70
:1013A0001B6800225A62204B1B6800229A621E4B67
:1013B0001B6818460DF072FE0346002B29D11A4B0C
:1013C0001B680021184611F074F80346002B22D147
:1013D000154B1B680021184611F0A9F80346002B95
:1013E0001BD1114B1B68184611F02AF80346002B3D
:1013F00015D10D4B1B681B6808221A620A4B1B682B
:101400001B681A68084B1B681B6842F020021A60B0
:1014100006E000BF04E000BF02E000BF00E000BF44
:101420000837BD4680BD00BF0000002460BD002419
:101430007C0A00240044004080B582B000AF1D4B00
:101440001B68002B32D01B4B1B681B68002B2DD058
:10145000194BB3F88030002B28D0164B1B681B6843
:10146000DB6903F00803082B0CD1124B1B681B68C7
:1014700008221A620F4B1B681B68DB690D4B1B6847
:101480001B685B6A0B4B1B681B68DB6903F020035E
:10149000202B0CD1074B1B681B685B6ADBB2FB710E
:1014A000FB1D01211846FFF78FFE00E000BF083743
:1014B000BD4680BD000000247C0A002480B58CB0AD
:1014C00002AF3B1D20220021184623F042FF0023DB
:1014D0007B600023BB600223FB6001233B614FF470
:1014E000C3737B6140F2FF73BB613B1D1946174814
:1014F00007F088FF034687F8273097F82730002B3E
:1015000002D097F827301CE00123BB6040F28F1314
:101510007B613B1D19460D4807F074FF034687F8B1
:10152000273097F82730002B02D097F8273008E0B3
:1015300001230093012302220221044807F0D8FF6F
:10154000034618462837BD4680BD00BF640B002403
:1015500080B500AFFFF7B2FF0A4807F0F6FF034679
:101560001A46094B1A70084B1B78DBB2002B04D1CA
:1015700000220121034808F08FFA00F007F800BFAD
:1015800080BD00BF640B00240400002480B590B02F
:1015900000AF07F114032C220021184623F0D9FED6
:1015A0003B1D00221A605A609A60DA601A4808F0FF
:1015B000F6FD0346194A1360174808F05AFA034625
:1015C000174A136007F114031946134808F0BEF9CF
:1015D0000346002B0ED17B69124A1360FB69124A45
:1015E00013603B6A114A13607B6A114A1360BB6A3D
:1015F000104A13603B1D1946074808F0F7F90346E7
:10160000002B05D17B680C4A1360BB680B4A136042
:1016100000BF4037BD4680BD640B0024040B00248E
:10162000080B00240C0B0024100B0024140B0024C6
:10163000180B00241C0B0024200B0024240B002476
:1016400080B58EB000AF0346FB8007F11003242263
:101650000021184623F07DFE07F1080300221A60DE
:101660005A6040F206233B6100237B610023BB618B
:101670000823FB6100233B6200237B620023BB62E3
:101680000023FB6200233B6307233B7200237B7232
:101690000023BB72FB88DBB2FB72FB881B0A9BB288
:1016A000DBB23B7300237B730023BB730023FB730C
:1016B00007F1080207F110031946114807F070FFFF
:1016C000034687F837300F4B1B6801330D4A136010
:1016D00097F83730002B05D10B4B1B6801330A4AB2
:1016E000136004E0094B1B680133084A1360FFF7DD
:1016F0004DFF97F8373018463837BD4680BD00BFDC
:10170000640B0024280B00242C0B0024300B002435
:1017100080B500AF0020FFF793FF0346184680BD59
:1017200080B582B000AF0346FB80FB88B3F5004F65
:1017300002D94FF40043FB80FB885B429BB2184602
:10174000FFF77EFF034618460837BD4680BD80B5CB
:1017500082B000AF0346FB80B7F90630002B02DAF7
:1017600047F6FF73FB80FB881846FFF769FF0346C7
:1017700018460837BD4680BD80B58CB000AF786094
:1017800007F1080324220021184623F0E2FD4FF45C
:101790004573BB600023FB6000233B6108237B6132
:1017A0000023BB610023FB6100233B6200237B62BB
:1017B0000023BB6207F108037A681946104807F056
:1017C000EFFE034687F82F300E4B1B6801330D4A9E
:1017D000136097F82F30002B05D10B4B1B6801339A
:1017E000094A136004E0094B1B680133074A136080
:1017F000FFF7CCFE97F82F3018463037BD4680BD36
:10180000640B0024280B00242C0B0024300B002434
:1018100080B586B000AF0346FB8007F108030022C5
:101820001A605A60B7F9063007EE903AF8EEE77A98
:10183000B2EE087A67EE877AC7ED057AD7ED057ABA
:10184000F5EEC07AF1EE10FA02DBB6EE007A01E0B6
:10185000BEEE007AD7ED057A77EE277AFDEEE77ACD
:1018600017EE903A7B827B8A3B8201233B723B8A54
:101870001B0A9BB2DBB27B723B8ADBB2BB7207F105
:1018800008031846FFF778FF034618461837BD4689
:1018900080BD80B582B000AF3B4600221A605A601E
:1018A0003B461846FFF768FF034618460837BD4613
:1018B00080BD80B500AF0020FFF7AAFF03461846A1
:1018C00080BD80B487B000AF78607B68002B02D108
:1018D0004FF000031CE07B6801331B781BB21B0236
:1018E0001AB27B6802331B781BB21343FB82B7F931
:1018F000163007EE903AF8EEE77AC7ED047A97EDE6
:10190000047AF2EE086AC7EE267AC7ED037AFB681E
:1019100007EE903AB0EE670A1C37BD465DF8047BCF
:10192000704780B483B000AF87ED010AD7ED017A2C
:10193000F5EEC07AF1EE10FA02DBD7ED017A03E0A2
:10194000D7ED017AF1EE677AB0EE670A0C37BD4643
:101950005DF8047B704780B485B000AF87ED030A63
:10196000C7ED020A87ED011A97ED037AD7ED017AE8
:10197000B4EEE77AF1EE10FA01DD7B680BE097ED4B
:10198000037AD7ED027AB4EEE77AF1EE10FA01D5D8
:10199000BB6800E0FB6807EE903AB0EE670A1437C8
:1019A000BD465DF8047B704780B584B000AF87ED1D
:1019B000010A97ED010AFFF7B4FF87ED030A9FEDD7
:1019C0001B1ADFED1B0A97ED030AFFF7C4FF87ED33
:1019D000030AD7ED037A9FED177A67EE877AC7ED92
:1019E000027AD7ED027AF5EEC07AF1EE10FA01D85C
:1019F000002316E0D7ED027A9FED0F7AF4EEC77A56
:101A0000F1EE10FA02DB4FF400430AE0D7ED027A60
:101A1000B6EE007A77EE877AFCEEE77A17EE903A28
:101A20009BB218461037BD4680BD00BF7B140E40E8
:101A3000000000000040E3430000004780B485B090
:101A400000AF0346FB80FB88002B02D14FF0000360
:101A500022E0B7F90630002B0EDAFB885B427B816F
:101A60007B8907EE903AB8EE677ADFED106AC7EE31
:101A7000267AC7ED037A0EE0FB887B817B8907EE2F
:101A8000903AB8EE677ADFED096AC7EE267AF1EE92
:101A9000677AC7ED037AFB6807EE903AB0EE670A03
:101AA0001437BD465DF8047B704700BF0040E34338
:101AB00080B483B000AF87ED010AD7ED017AF5EE6F
:101AC000C07AF1EE10FA0BDBD7ED017AB6EE007AB0
:101AD00077EE877AFDEEE77A17EE903A1BB20AE0CE
:101AE000D7ED017AB6EE007A77EEC77AFDEEE77AA7
:101AF00017EE903A1BB218460C37BD465DF8047BD2
:101B00007047000080B588B000AF87ED030AC7EDCD
:101B1000020A78607B68002B4AD09FED271ADFED20
:101B2000270A97ED030AFFF716FF87ED070A97EDDF
:101B3000070AFFF7F6FEF0EE407A9FED217AF4EE09
:101B4000C77AF1EE10FA08D57B684FF000021A60F0
:101B50007B684FF000025A602BE0D7ED027A9FEDD0
:101B6000197A27EE877AD7ED077AC7EE276AB0EEA3
:101B7000660A24F0F1FA87ED060AD7ED067A9FEDA2
:101B8000127A67EE877AF1EE677AC7ED057AB3EEDF
:101B90000E1AFBEE0E0A97ED050AFFF7DCFE87ED45
:101BA000050A7B68FA691A607B687A695A6000E006
:101BB00000BF2037BD4680BD7B140E407B140EC095
:101BC0000AD7233CC3F5283FE12E654280B584B097
:101BD00000AF87ED010AC7ED000A07F108031846B8
:101BE000D7ED000A97ED010AFFF78CFFD7ED027AD7
:101BF000B0EE670A00F00AF8D7ED037AB0EE670A94
:101C000000F04AF800BF1037BD4680BD80B584B0F3
:101C100000AF87ED010A9FED1C1ADFED1C0A97ED5E
:101C2000010AFFF798FE87ED030A194AFB68136063
:101C300097ED030AFFF7B8FE03467B817B89002BF3
:101C400006D1FFF765FD03461A46124B1A7017E0DE
:101C5000D7ED037AF5EEC07AF1EE10FA08DD7B8954
:101C60001846FFF75DFD03461A460A4B1A7007E057
:101C70007B891846FFF76BFD03461A46054B1A7021
:101C800000BF1037BD4680BD7B140E407B140EC0D4
:101C9000400B0024600B002480B584B000AF87EDBA
:101CA000010AB3EE0E1AFBEE0E0A97ED010AFFF7DA
:101CB00052FE87ED030A0B4AFB68136097ED030A97
:101CC000FFF7F6FE03467B81B7F90A301846FFF7A7
:101CD0009FFD03461A46044B1A7000BF1037BD46DD
:101CE00080BD00BF540B0024610B002480B586B07A
:101CF00000AF87ED010AC7ED000A97ED010AFFF773
:101D000010FE87ED050AD7ED057A9FED167AF4EE01
:101D1000C77AF1EE10FA02D54FF000031AE0D7EDC2
:101D2000007A9FED117A67EE877AF1EE677AC7ED58
:101D3000047A97ED040A24F0E9FAB0EE407AD7ED80
:101D4000017A27EE277ADFED096AC7EE267AC7ED1A
:101D5000037AFB6807EE903AB0EE670A1837BD4683
:101D600080BD00BF0AD7233C35FA8E3CC3F5283F1F
:101D700080B582B000AF254BD3F8D830234A43F06A
:101D80000103C2F8D830214BD3F8D83003F0010357
:101D90007B607B68002205210B2004F0A9F80B2052
:101DA00004F0C0F8002205210C2004F0A1F80C205A
:101DB00004F0B8F8002205210D2004F099F80D2058
:101DC00004F0B0F8002205210E2004F091F80E2056
:101DD00004F0A8F8002205210F2004F089F80F2054
:101DE00004F0A0F800220521102004F081F8102052
:101DF00004F098F800220521112004F079F8112050
:101E000004F090F800BF0837BD4680BD004402587A
:101E100080B500AF2E4B2F4A1A602D4B00229A60DE
:101E20002B4B0022DA602A4B00221A74284B002226
:101E30005A74274B00229A74254B05225A61244B71
:101E400002229A61224B0D22DA61214B02221A6290
:101E50001F4B01225A621E4B01229A621C4B012227
:101E6000DA621B4B01221A63194B00225A63184B8A
:101E700008229A63164B0022DA63154B10221A646B
:101E8000134B04225A64124B00229A64104B042212
:101E9000DA640F4B00221A650D4B04225A650C4B75
:101EA00000229A650A4B0022DA65094B08221A665D
:101EB000074B00225A66064B04229A66044807F034
:101EC000C3F80346002B01D001F0C6F800BF80BD67
:101ED000640B002400A0004080B58AB000AF786099
:101EE00007F1140300221A605A609A60DA601A61DE
:101EF0007B681B681E4A934236D11E4BD3F8EC30E8
:101F00001C4A43F48073C2F8EC301A4BD3F8EC301F
:101F100003F480733B613B69164BD3F8E030154AFC
:101F200043F00103C2F8E030124BD3F8E03003F085
:101F30000103FB60FB684FF4C0537B610223BB616C
:101F40000023FB6100233B6209237B6207F114033A
:101F50001946094808F034FB00220521132003F03C
:101F6000C7FF132003F0DEFF00BF2837BD4680BD4A
:101F700000A00040004402580000025880B500AFA5
:101F8000304A3021202010F0E1FC03462E4A136035
:101F90002E4A0421042010F0D9FC03462C4A136079
:101FA0002C4A0421042010F0D1FC03462A4A136075
:101FB0002A4A00212A4810F01EFC0346294A1360D1
:101FC000294A0021294810F016FC0346284A1360CC
:101FD000284A0021284810F00EFC0346274A1360C7
:101FE000274A0021274810F006FC0346264A1360C2
:101FF000264A0021264810F0FEFB0346254A1360BE
:10200000254A0021254810F0F6FB0346244A1360B8
:10201000244A0021244810F0EEFB0346234A1360B3
:10202000234A0021234810F0E6FB0346224A1360AE
:10203000224A0021224810F0DEFB0346214A1360A9
:1020400000BF80BDF47E020888B100240C7F020826
:10205000DCB70024247F020840B80024B07D0208C9
:10206000C9200008480F0024D47D0208F523000889
:10207000883E0024F87D0208A5240008E84E0024CC
:102080001C7E0208D5240008485F0024407E020818
:10209000E9240008A8670024647E0208552500088A
:1020A00008780024887E0208052600086888002435
:1020B000AC7E020817260008C8900024D07E0208D3
:1020C0002926000828A1002480B590B002AF7860CE
:1020D000A94B0193A94B0093A94BAA4AAA490120F5
:1020E00017F002F907F12003184617F031F8A74B53
:1020F0003B62A74B7B62A74BBB62A74BFB6207F11E
:102100002003184617F032F8034683F00103DBB2D0
:10211000002B04D04FF47A7010F0FEFBFAE707F1C1
:102120000C03184617F040F805E017F071F84FF46B
:10213000FA7010F0F1FB07F10C0300220021974820
:1021400016F0CEFE0346002BEFD105E017F060F845
:102150004FF4FA7010F0E0FB904B914A914992488D
:1021600016F008FF0346002BF0D105E017F050F8F9
:102170004FF4FA7010F0D0FB17F04AFE02468B4B7A
:1021800089498B4816F038FF0346002BEED105E055
:1021900017F03EF84FF4FA7010F0BEFB15F02EFE6B
:1021A0000246844B8049844816F026FF0346002BE4
:1021B000EED105E017F02CF84FF4FA7010F0ACFBFC
:1021C00014F04CF902467D4B77497D4816F04EFFDE
:1021D0000346002BEED17B4B00221A607A494FF068
:1021E00000024FF00003C1E9002377494FF00002DD
:1021F0004FF00003C1E9022373494FF000024FF092
:102200000003C1E9042370494FF000024FF00003BE
:10221000C1E906236C494FF000024FF00003C1E909
:10222000082369494FF000024FF00003C1E90A2377
:10223000664B674A9A60654B0422DA60634B05225D
:102240001A61624B634A5A61604B09229A615F4B83
:102250000A22DA6105E016F0DBFF4FF4FA7010F0A5
:102260005BFB5D4B009340A3D3E900234B495B48E4
:1022700016F036FF0346002BEDD105E016F0C8FF3F
:102280004FF4FA7010F048FB554B009336A3D3E996
:1022900000234249534816F023FF0346002BEDD19B
:1022A00005E016F0B5FF4FF4FA7010F035FB07F1BA
:1022B0000C03032239494C4816F006FB0346002B59
:1022C000EFD105E016F0A4FF4FF4FA7010F024FBF4
:1022D00000230093454B3C4A3949434816F070FBB4
:1022E0000346002BEED105E016F092FF4FF4FA7092
:1022F00010F012FB39493C4816F0A0FB0346002BB6
:10230000F2D105E016F084FF4FF4FA7010F004FBF0
:102310003449354816F092FB0346002BF2D104E015
:1023200016F076FF642010F0F7FA4FF47A7017F089
:10233000B9F90346002BF3D10DA3D3E900232A48B2
:1023400016F096FD78637B6B002B09D07B6B022B1C
:1023500006D0274B1B680133254A136016F058FF3F
:102360000A2010F0D9FAE7E700C2EB0B00000000EA
:1023700080F0FA020000000075620108C9610108DE
:10238000A961010851610108CCBC0024895E0108E3
:10239000CD5E0108055F0108715F0108A4B8002443
:1023A0009C7C020884740208D8B800249474020843
:1023B000640C0024A0740208680C0024A8740208AD
:1023C000E0B800246C0C0024E8B80024700C002451
:1023D000B4740208BC740208B527000818B90024B8
:1023E000092800081CB9002420B90024D52A0008B7
:1023F000600C002480B584B000AF7860FFF7A8F8C7
:10240000FFF786F903461A461F4B1A70FFF741FA89
:1024100003461A461D4B1A70FFF74BFA03461A463D
:102420001A4B1A7010F0CAF9F860194B1B68002B90
:1024300006D0174B1B68FA68D31AB3F5FA7F07D991
:10244000144B4FF000021A60134B4FF000021A6059
:10245000104BD3ED007A104B93ED007AF0EE470A63
:10246000B0EE670AFFF7B2FB0C4B1B78DAB2064BF3
:102470001A700B4B1B78DAB2044B1A70FFF786F810
:102480000A2010F049FACDE7040C0024050C0024C2
:10249000580C00244C0C0024500C0024600B002429
:1024A000610B002480B58EB000AF7860084B1868CF
:1024B00007F108014FF0FF33002210F017FB03462D
:1024C000002BF3D107F10803184600F0B7F8EDE749
:1024D00088B1002480B582B000AF78604FF47A7084
:1024E00010F01AFAFAE7000090B587B000AF7860F4
:1024F0004FF4E130FEF7D4FD03461A46114B1A7033
:1025000007F10C0305211846FEF7F2FD0346002BE8
:1025100010D10D4B1C4607F10C0393E8070084E82B
:1025200007000A4B01221A70094B1B680133084A45
:10253000136002E0054B00221A700A2010F0ECF93B
:10254000DEE700BF05000024400C0024390C002405
:102550003C0C0024B0B592B000AF786000F0CCFD28
:1025600000F040FE786400F03DFE38643A6C7B6C0D
:102570009A4239D000F042FEF8633B6C7B6407F16D
:102580000C031946F86B00F04FFE0346002B28D0D1
:1025900007F1340207F10C031146184600F0E8FF7A
:1025A000134B1C4607F10C050FCD0FC40FCD0FC404
:1025B00095E803002060043421800E4B07F13402BB
:1025C00092E803001860043319800B4B01221A7043
:1025D00097F82F20094B1A7097F83920084B1A707A
:1025E00002E0054B00221A700A2010F095F9BAE7B4
:1025F000080C0024300C0024360C0024370C002476
:10260000380C002480B582B000AF78604FF47A7047
:1026100010F082F9FAE780B582B000AF78604FF42D
:102620007A7010F079F9FAE780B582B000AF78607F
:102630004FF47A7010F070F9FAE7000080B584B0BA
:1026400000AF78607B68002B5ED07B685B68002BF6
:102650005CD17B681B68B3F5C37F25D17B68DB68E1
:10266000042B21D97B6893F82B301A467B6893F8AA
:102670002C301B029BB21343FB81264AFB8913803B
:10268000FB891846FFF7DAF9F0EE407A224BC3EDEA
:10269000007A10F093F80346204A1360204B1B6821
:1026A00001331F4A136032E07B681B6840F28F12CF
:1026B00093422CD17B68DB68022B28D97B682833B6
:1026C0001846FFF7FEF887ED020A164ABB6813604A
:1026D000154ABB68136010F071F80346134A136083
:1026E000134B1B680133124A13600B4BD3ED007A76
:1026F000D7ED020AB0EE670AFFF7F8FAF0EE407A7B
:102700000C4BC3ED007A02E000BF00E000BF1037C1
:10271000BD4680BD480B0024440B0024500B002410
:102720004C0B0024340B0024580B00243C0B0024D9
:10273000380B00245C0B002480B58EB000AF7860AD
:1027400039607B68002B2AD07B681B68174A93424C
:1027500025D13B6803F00103002B20D0144B1B68EC
:10276000002B1CD013E007F10803283307F10802FF
:102770004021786806F070FF0346002B11D10C4B06
:10278000186807F108010023002210F051F94021D8
:10279000786807F050F90346002BE4D102E000BF4F
:1027A00000E000BF3837BD4680BD00BF00A000403C
:1027B00088B1002480B584B000AFF860C7E9002379
:1027C00000220D490D4815F0F1FC0346002B08D1FD
:1027D000094B1B680133084A1360094B00221A6039
:1027E00006E0074B1B680133054A136016F010FD25
:1027F00000BF1037BD4680BD6C0C0024640C002463
:102800005C0C00240000000090B52DED028B8DB013
:1028100000AFF860C7E90023A34B1B68BB62A34B62
:102820001B687B620FF0CAFF3862A14B1B68002B4C
:1028300002D1A04BFB6215E09D4B1B683A6AD31A8C
:1028400007EE903AB8EE678A0FF0CCFF07EE900AD9
:10285000B8EE677AF7EE006AC6EE877A68EE277AF6
:10286000C7ED0B7A924A3B6A1360D7ED097AB6EE50
:10287000007A27EE877AD7ED0B7A27EE277A8E4BF0
:10288000D3ED007A77EE277AB0EE670A23F060FE88
:10289000B0EE407AD7ED0A7A27EE277AD7ED0B7A99
:1028A00027EE277A854BD3ED007A77EE277A834B94
:1028B000C3ED007AD7ED097AB6EE007A27EE877A73
:1028C000D7ED0B7A27EE277A7B4BD3ED007A77EEA4
:1028D000277AB0EE670A23F043FDB0EE407AD7EDD9
:1028E0000A7A27EE277AD7ED0B7A27EE277A744BF0
:1028F000D3ED007A77EE277A714BC3ED007A97ED2E
:10290000097AD7ED0B7A27EE277A6B4BD3ED007A55
:1029100077EE277A684BC3ED007A674BD3ED007AE8
:10292000B6EE007A67EE877AC7ED077A16F0A2FE58
:102930000346002B18D016F0A7FEC7E90401D7E91B
:10294000040157A3D3E90023FDF7EEFE02460B4630
:102950005C4B1A60D7E9040151A3D3E90023FDF7CA
:10296000E3FE584B5A601EE00FF028FFB8610FF0ED
:1029700039FF0246BB69B3FBF2F31A46514B1A60AA
:102980000FF030FF0246BB69B3FBF2F101FB02F22C
:102990009C1A0FF027FF03464B4AB2FBF3F304FBEC
:1029A00003F3484A5360454BD3ED007AB7EEE77A1C
:1029B000444B83ED087B424BD3ED007AB7EEE77AC8
:1029C000404B83ED0A7B3F494FF000024FF000037C
:1029D000C1E90C233B494FF000024FF00003C1E96D
:1029E0000E2338494FF000024FF00003C1E91023D5
:1029F00097ED070A23F0B4FCF0EE407AB7EEE77AE1
:102A0000304B83ED127B97ED070A23F0A1FDF0EE2A
:102A1000407AB7EEE77A2B4B83ED147BD7ED0A7A39
:102A2000B7EEE77A274B83ED5E7B26494FF0000235
:102A30004FF00003C1E9602322494FF000024FF03C
:102A40000003C1E962231F494FF000024FF0000369
:102A5000C1E964231B494FF000024FF00003C1E9B4
:102A60006623D7ED097AB7EEE77A164B83ED687BDC
:102A700000221449154815F099FB0346002B06D097
:102A8000134B1B680133124A136016F0C1FB00BFE1
:102A90003437BD46BDEC028B90BD00BFAFF3008064
:102AA00000CA9A3B00000000440B00245C0B002489
:102AB000440F00240AD7A33C400F0024380F002401
:102AC0003C0F0024700C002400CA9A3B680C0024C0
:102AD0005C0C002480B584B000AF78607B68FB603C
:102AE000FB68002B19D0FB6893ED007BF7EEC77BEA
:102AF0000C4BC3ED007AFB6893ED0A7BF7EEC77BC6
:102B0000094BC3ED007A0FF059FE0346074A1360E4
:102B1000074B1B680133064A136000BF1037BD46E0
:102B200080BD00BF4C0C0024500C0024580C002425
:102B3000540C002480B58EB000AF07F124030022AE
:102B40001A605A609A60DA601A61614BD3F8E0301B
:102B50005F4A43F00203C2F8E0305D4BD3F8E03047
:102B600003F002033B623B6A594BD3F8E030584A0A
:102B700043F04003C2F8E030554BD3F8E03003F0A7
:102B80004003FB61FB69524BD3F8E030504A43F0FD
:102B90000803C2F8E0304E4BD3F8E03003F00803EE
:102BA000BB61BB694A4BD3F8E030494A43F00403A8
:102BB000C2F8E030464BD3F8E03003F004037B6109
:102BC0007B69434BD3F8E030414A43F48073C2F849
:102BD000E0303F4BD3F8E03003F480733B613B6956
:102BE0003B4BD3F8E0303A4A43F00103C2F8E030FF
:102BF000374BD3F8E03003F00103FB60FB68344B44
:102C0000D3F8E030324A43F08003C2F8E030304B72
:102C1000D3F8E03003F08003BB60BB682C4BD3F8E3
:102C2000E0302B4A43F02003C2F8E030284BD3F8C1
:102C3000E03003F020037B607B6800224FF44061AA
:102C4000244807F081FF00222021234807F07CFF61
:102C500001224FF400711F4807F076FF0122402146
:102C60001D4807F071FF00220B211C4807F06CFF84
:102C70004FF460637B620123BB620123FB6200238C
:102C80003B6307F124031946124807F099FC6023BF
:102C90007B620123BB620123FB6200233B6307F1DC
:102CA000240319460C4807F08BFC0B237B6201239D
:102CB000BB620123FB6200233B6307F12403194637
:102CC000064807F07DFC00BF3837BD4680BD00BF19
:102CD0000044025800180258000C02580020025804
:102CE00080B500AF1B4B1C4A1A601A4B1B4A5A6036
:102CF000184B00229A60174B0122DA60154B002214
:102D00001A61144B00225A61124B00229A61114B36
:102D10000022DA610F4B00221A620E4807F02EFFE4
:102D20000346002B01D000F097F90021094807F075
:102D3000C1FF0346002B01D000F08EF900210548A9
:102D400008F003F80346002B01D000F085F900BF1E
:102D500080BD00BFA8B9002400540040B6349000E4
:102D600080B5BAB000AF786007F1D40300221A60D2
:102D70005A609A60DA601A6107F11003C0220021DC
:102D8000184622F0E6FA7B681B68264A934245D132
:102D90004FF008024FF00003C7E904230023C7F8EF
:102DA000943007F11003184609F07EF80346002B13
:102DB00001D000F051F91C4BD3F8E0301A4A43F02F
:102DC0000203C2F8E030184BD3F8E03003F00203FE
:102DD000FB60FB68C023C7F8D4301223C7F8D83093
:102DE0000023C7F8DC300023C7F8E0300423C7F81D
:102DF000E43007F1D40319460C4807F0E1FB0A4B15
:102E0000D3F8E830084A43F40013C2F8E830064B20
:102E1000D3F8E83003F40013BB60BB6800BFE837A9
:102E2000BD4680BD005400400044025800040258D2
:102E300080B500AF00F0D2F801F0B6FE00F022F845
:102E400000F09AF8FFF776FEFEF792FF01F072F9B4
:102E5000FEF7DEFF00F084FF00F0D6FF01F002FA7B
:102E600001F0C8F8FDF746FEFFF73AFF01F00EF952
:102E700001F0ACF90FF052FCFFF780F80FF074FC92
:102E800000BFFDE780B59CB000AF07F124034C22E2
:102E90000021184622F05DFA3B1D20220021184631
:102EA00022F057FA022007F09DFF00233B60304BD1
:102EB000DB6A2F4A23F00103D3622D4BDB6A03F058
:102EC00001033B602B4B9B692A4A43F440439361C7
:102ED000284B9B6903F440433B603B6800BF254B94
:102EE0009B6903F40053B3F5005FF8D101237B62C3
:102EF0004FF48033BB620223BB640223FB640523CF
:102F00003B65A0237B650223BB650323FB6502238E
:102F10003B6608237B660023BB660023FB6607F144
:102F20002403184607F098FF0346002B01D000F059
:102F300093F83F237B600323BB600023FB600823DF
:102F40003B6140237B614023BB614FF48063FB61A5
:102F500040233B623B1D0221184608F0D7FB034685
:102F6000002B01D000F078F800BF7037BD4680BD5F
:102F7000000400580048025880B5B0B000AF3B468E
:102F8000C0220021184622F0E4F94FF408224FF045
:102F90000003C7E900230223BB601023FB60022368
:102FA0003B6105237B610223BB61C023FB610023DE
:102FB0003B6200237B624FF000533B670023C7F85E
:102FC000A4303B46184608F06FFF0346002B01D0A3
:102FD00000F042F800BFC037BD4680BD80B584B068
:102FE00000AF3B4600221A605A609A60DA6002F035
:102FF000B5FF01233B7000237B7000237B601F2300
:103000003B7287237B720023BB720023FB72012378
:103010003B7301237B730023BB730023FB733B468D
:10302000184602F0D3FF042002F0B0FF00BF1037B3
:10303000BD4680BD80B582B000AF78607B681B68FC
:10304000044A934201D101F0EBFD00BF0837BD46B1
:1030500080BD00BF0010004080B400AF72B600BF5A
:1030600000BFFDE780B485B000AF0346FB80FB885E
:10307000A3F57873FB60FB6813F1310F04DBFB6889
:10308000312B01DC00232BE0FB68002B0DDDFB68FE
:103090004FF47A7202FB03F3144A82FB03121A44C0
:1030A0005212DB17D31AFB600BE0FB684FF47A7205
:1030B00002FB03F30E4A82FB03121212DB17D31A30
:1030C000FB60FB68B3F57A7F02DD4FF47A73FB6037
:1030D000FB6813F57A7F01DA064BFB60FB681BB2D5
:1030E00018461437BD465DF8047B7047A1000AA05E
:1030F000FF04EC4F18FCFFFF80B582B000AF2D4BF2
:1031000000221A702C4B00221A702C4B00221A70CD
:103110002B4B00221A702B4B00221A702A4B0022D4
:103120001A602A4B00221A7000237B6016E0284A9E
:103130007B68134400221A70264A7B6813440022DD
:103140001A70254A7B68134400221A70234A7B6850
:10315000134400221A707B6801337B607B68182B54
:10316000E5D91F480CF068FA1D480BF0E7FF00F0A6
:103170008DFF00220521352002F0BAFE352002F035
:10318000D1FE174BD3F88030002B0BD019221049F9
:1031900013480CF06FF90346002B03D1084B0122B2
:1031A0001A7004E019220B490D480CF097F8083703
:1031B000BD4680BD72BA0024B4BA0024B5BA00245A
:1031C0004DBA002454BA002450BA002471BA002425
:1031D000FCB9002418BA002434BA002458BA0024D8
:1031E00038BC002480B400AF034B1B681846BD46B2
:1031F0005DF8047B704700BF50BA002480B400AF74
:10320000064B1B78DBB2002B01D0054B00E0054BD1
:103210001846BD465DF8047B704700BF4DBA0024D8
:10322000FCB9002434BA002480B485B000AF7860C3
:1032300039607B68002B02D03B68002B01D1002352
:1032400090E17B681B780F2B05D03B68002283F848
:103250002420002386E17B6801331B781AB27B6847
:1032600002331B781BB21B021BB213431BB29BB26F
:10327000C3F30A039AB23B681A807B6802331B7857
:10328000DB08DBB21AB27B6803331B781BB25B012D
:103290001BB213431BB29BB2C3F30A039AB23B683F
:1032A0005A807B6803331B789B09DBB21AB27B68B8
:1032B00004331B781BB29B001BB213431AB27B680A
:1032C00005331B781BB29B021BB213431BB29BB28C
:1032D000C3F30A039AB23B689A807B6805331B7874
:1032E0005B08DBB21AB27B6806331B781BB2DB01CA
:1032F0001BB213431BB29BB2C3F30A039AB23B68DF
:10330000DA807B6806331B781B09DBB21AB27B6854
:1033100007331B781BB21B011BB213431BB29BB2BA
:10332000C3F30A039AB23B681A817B6807331B78A0
:10333000DB09DBB21AB27B6808331B781BB25B0077
:103340001BB213431AB27B6809331B781BB25B02B2
:103350001BB213431BB29BB2C3F30A039AB23B687E
:103360005A817B6809331B789B08DBB21AB27B68F1
:103370000A331B781BB29B011BB213431BB29BB2D7
:10338000C3F30A039AB23B689A817B680A331B78BD
:103390005B09DBB21AB27B680B331B781BB2DB0014
:1033A0001BB213431BB29BB2C3F30A039AB23B682E
:1033B000DA817B680C331B781AB27B680D331B787B
:1033C0001BB21B021BB213431BB29BB2C3F30A0313
:1033D0009AB23B681A827B680D331B78DB08DBB23C
:1033E0001AB27B680E331B781BB25B011BB213430E
:1033F0001BB29BB2C3F30A039AB23B685A827B6842
:103400000E331B789B09DBB21AB27B680F331B7833
:103410001BB29B001BB213431AB27B6810331B789C
:103420001BB29B021BB213431BB29BB2C3F30A0332
:103430009AB23B689A827B6810331B785B08DBB2D8
:103440001AB27B6811331B781BB2DB011BB213432A
:103450001BB29BB2C3F30A039AB23B68DA827B6861
:1034600011331B781B09DBB21AB27B6812331B784D
:103470001BB21B011BB213431BB29BB2C3F30A0363
:103480009AB23B681A837B6812331B78DB09DBB284
:103490001AB27B6813331B781BB25B001BB2134359
:1034A0001AB27B6814331B781BB25B021BB2134346
:1034B0001BB29BB2C3F30A039AB23B685A837B6880
:1034C00014331B789B08DBB21AB27B6815331B7868
:1034D0001BB29B011BB213431BB29BB2C3F30A0383
:1034E0009AB23B689A837B6815331B785B09DBB221
:1034F0001AB27B6816331B781BB2DB001BB2134376
:103500001BB29BB2C3F30A039AB23B68DA837B68AF
:1035100017331B78FB73FB7B03F00103DAB23B68C4
:1035200083F82020FB7B5B08DBB203F00103DAB2F7
:103530003B6883F82120FB7B9B08DBB203F001038F
:10354000DAB23B6883F82220FB7BDB08DBB203F0B6
:103550000103DAB23B6883F823203B68012283F839
:103560002420012318461437BD465DF8047B7047BC
:1035700080B584B000AF786039607B68002B34D0B0
:103580003B68002B31D07B681B881846FFF76AFD2B
:103590000346FB817B685B881846FFF763FD0346A3
:1035A000BB813B68FA895A803B68BA891A807B687C
:1035B0001B89B3F5787F01D9012200E000223B6826
:1035C0001A713B6800225A717B685B89B3F5787F7A
:1035D00002D93B6801225A717B6893F82330002B93
:1035E00004D03B6801225A7100E000BF1037BD468D
:1035F00080BD000080B586B000AF78607B686C4A03
:10360000934240F0D2806B4B1B78DBB2002B6AD028
:10361000694B1B787B727B7A0D2B02D07B7A0A2B4D
:103620002DD1664B1B78DBB2002B55D0644B1B7839
:10363000DBB2002B50D100237B610BE0614A7B6938
:1036400013441978604A7B6913440A461A707B69EF
:1036500001337B61594B1B78DBB21A467B6993427D
:10366000ECD3564B1B78DBB21A46574B00219954CA
:10367000524B00221A70524B01221A702CE07B7AB6
:10368000082B02D07B7A7F2B0CD14C4B1B78DBB202
:10369000002B22D0494B1B78DBB2013BDAB2474BFF
:1036A0001A701AE07B7A1F2B17D97B7A7E2B14D8DD
:1036B000424B1B78DBB21E2B0FD8404B1B78DBB282
:1036C0001946404A7B7A53543C4B1B78DBB201339A
:1036D000DAB23A4B1A7000E000BF01223649344892
:1036E0000BF0FCFD61E0394B1B78DBB2002B40D0C6
:1036F000374B1B78FB72374B1B78BB72BB7A002BA6
:1037000009D1FB7A0F2B2ED1334AFB7A1370314B40
:1037100001221A7027E0BB7A2F49FA7ACA54BB7A81
:103720000133BB72BB7A182B1AD900233B610BE023
:10373000294A3B6913441978284A3B6913440A46CD
:103740001A703B6901333B613B69182BF0D9244B5C
:103750001B680133224A13601E4B00221A7002E0DC
:103760001C4ABB7A13700122194911480BF0B6FDAF
:103770001BE00023FB600BE01A4AFB681344197836
:10378000164AFB6813440A461A70FB680133FB6053
:10379000FB68182BF0D9124B1B680133104A1360D9
:1037A0001922104902480BF099FD1837BD4680BD1B
:1037B00038BC002472BA002473BA0024B4BA0024BE
:1037C000B5BA002474BA002494BA002454BA002470
:1037D00055BA002471BA002458BA002434BA00241F
:1037E00050BA002418BA002480B582B000AF7860C7
:1037F0007B68084A934209D1074B1B78DBB2002B48
:1038000004D11922054903480BF068FD00BF0837B1
:10381000BD4680BD38BC00244DBA002418BA00242F
:1038200080B500AF02480CF099F800BF80BD00BF22
:1038300038BC002480B582B000AF0C4BD3F8F43014
:103840000A4A43F00203C2F8F430084BD3F8F430CC
:1038500003F002037B607B6800220F216FF0010000
:1038600002F046FB00BF0837BD4680BD0044025849
:1038700080B590B000AF78607B680F2B27D800220E
:103880007968362002F034FB362002F04BFB294ADF
:103890007B681360284BD3F8E830274A43F01003C5
:1038A000C2F8E830244BD3F8E83003F01003FB6093
:1038B000FB6807F1100207F114031146184608F0DF
:1038C000B1FABB6ABB63BB6B002B06D101E00123DD
:1038D0002BE008F07BFAF86304E008F077FA03467F
:1038E0005B00FB63FB6B154AA2FB03239B0C013BB4
:1038F0007B63134B134A1A60114B40F2E732DA60D4
:103900000F4A7B6B53600E4B00221A610C4B002256
:103910009A600B480AF0C6FF0346002B04D1084802
:103920000BF022F8034600E0012318464037BD465D
:1039300080BD00BF140000240044025883DE1B43F6
:10394000B8BA00240010004080B400AF00BFFDE70B
:1039500080B400AF00BFFDE780B400AF00BFFDE75B
:1039600080B400AF00BFFDE780B400AF00BFFDE74B
:1039700080B400AF00BFBD465DF8047B7047000017
:1039800080B500AF024804F041F800BF80BD00BF21
:1039900078BF002480B500AF024804F037F800BFBC
:1039A00080BD00BFF0BF002480B500AF024804F026
:1039B0002DF800BF80BD00BF68C0002480B500AFF7
:1039C000024804F023F800BF80BD00BFE0C000241F
:1039D00080B500AF024804F019F800BF80BD00BFF9
:1039E00088BE002480B500AF024804F00FF800BF85
:1039F00080BD00BF00BF002480B500AF024804F0C6
:103A000005F800BF80BD00BF000A002480B500AFEC
:103A1000024806F0BBF800BF80BD00BF640B002465
:103A200080B500AF02480BF099FF00BF80BD00BF1A
:103A3000CCBC002480B500AFFDF7FEFC00BF80BD0C
:103A400080B500AF02480BF089FF00BF80BD00BF0A
:103A5000F4BD002480B500AF02480BF07FFF00BF2B
:103A600080BD00BFA4BB002480B500AF02480BF0AE
:103A700099F800BF80BD00BFB8BA002480B400AF81
:103A800001231846BD465DF8047B704780B582B0BF
:103A900000AF7860396021F0EFFC034616221A600F
:103AA0004FF0FF3318460837BD4680BD80B582B061
:103AB00000AF78604FF0FF317868FFF7E7FF00BF95
:103AC000FDE780B586B000AFF860B9607A6000238A
:103AD0007B610AE0AFF300800146BB685A1CBA6004
:103AE000CAB21A707B6901337B617A697B689A423A
:103AF000F0DB7B6818461837BD4680BD80B586B0C0
:103B000000AFF860B9607A6000237B6109E0BB68B0
:103B10005A1CBA601B781846AFF300807B690133EA
:103B20007B617A697B689A42F1DB7B6818461837BB
:103B3000BD4680BD80B483B000AF78604FF0FF33E6
:103B400018460C37BD465DF8047B704780B483B0DF
:103B500000AF786039603B684FF400525A60002330
:103B600018460C37BD465DF8047B704780B483B0BF
:103B700000AF7860012318460C37BD465DF8047B22
:103B8000704780B485B000AFF860B9607A600023F8
:103B900018461437BD465DF8047B704780B586B083
:103BA00000AF7860144A154BD31A7B617B693B6187
:103BB000134B1B68002B02D1114B124A1A60104B99
:103BC0001A687B6813443A699A4207D221F054FC80
:103BD00003460C221A604FF0FF3309E0084B1B68C4
:103BE000FB60074B1A687B681344054A1360FB6847
:103BF00018461837BD4680BD0000082400040000A8
:103C000008BB0024B09B012480B400AF434BD3F821
:103C10008830424A43F47003C2F88830404B1B6836
:103C200003F00F03062B07D83D4B1B6823F00F034F
:103C30003B4A43F0070313603A4B1B68394A43F091
:103C400001031360374B00221A61364B1A6835495D
:103C5000354B13400B60324B1B6803F00803002BFD
:103C600007D02F4B1B6823F00F032D4A43F00703A7
:103C700013602C4B00229A612A4B0022DA61294BF7
:103C800000221A62274B294A9A62264B284ADA6296
:103C9000244B284A1A63234B00225A63214B254A9E
:103CA0009A63204B0022DA631E4B224A1A641D4B92
:103CB00000225A641B4B1B681A4A23F480231360AA
:103CC000184B00221A661C4B1A681C4B1340B3F1A8
:103CD000005F02D21A4B01221A60124BD3F8D43083
:103CE00003F48053002B13D10E4BD3F8D4300D4A7C
:103CF00043F48053C2F8D430124B43F2D2021A601C
:103D0000084BD3F8D430074A23F48053C2F8D43098
:103D100000BFBD465DF8047B704700BF00ED00E0CA
:103D200000200052004402587FEDF6EA0002020231
:103D30000000FF01800201010010005C0000FFFF95
:103D40000881005100400052044BDA6842F0020240
:103D5000DA605A689204FCD5704700BF00480258E8
:103D600080B58CB000AF07F10C0324220021184667
:103D700021F0EFFA3B4600221A605A609A60214B0C
:103D80004FF080421A601F4B00225A601D4B0022E8
:103D90009A601C4B4FF0FF32DA601A4B00221A6116
:103DA000184B00229A610323FB6000233B6101232F
:103DB0007B610023BB610423FB6100233B62012381
:103DC0007B620023BB620423FB6207F10C031946EC
:103DD0000C480AF041FE0346002B01D0FFF73CF9E6
:103DE00000233B600023BB603B46194605480BF0AF
:103DF000A9F80346002B01D0FFF72EF900BF30379A
:103E0000BD4680BD0CBB002480B58CB000AF07F16F
:103E10000C0324220021184621F09BFA3B46002285
:103E20001A605A609A60214B214A1A601F4B002287
:103E30005A601E4B00229A601C4B4FF0FF32DA6032
:103E40001A4B00221A61194B00229A610323FB606E
:103E500000233B6101237B610023BB610423FB61E1
:103E600000233B6201237B620023BB620423FB62CD
:103E700007F10C0319460D480AF0EEFD0346002B2E
:103E800001D0FFF7E9F800233B600023BB603B460D
:103E9000194606480BF056F80346002B01D0FFF7F1
:103EA000DBF800BF3037BD4680BD00BF58BB0024E3
:103EB000000C004080B58CB000AF786007F11C03A7
:103EC00000221A605A609A60DA601A617B681B6887
:103ED000B3F1804F4ED1434BD3F8E830414A43F021
:103EE0000103C2F8E8303F4BD3F8E83003F0010398
:103EF000BB61BB693B4BD3F8E0303A4A43F0010366
:103F0000C2F8E030374BD3F8E03003F001037B61B7
:103F10007B69344BD3F8E030324A43F00203C2F8F5
:103F2000E030304BD3F8E03003F002033B613B69F3
:103F30004FF40043FB6102233B6201237B620023B9
:103F4000BB620123FB6207F11C031946264806F0F9
:103F500037FB0823FB6102233B6201237B620023C2
:103F6000BB620123FB6207F11C0319461F4806F0E0
:103F700027FB32E07B681B681D4A93422DD1194B09
:103F8000D3F8E830174A43F00803C2F8E830154B7D
:103F9000D3F8E83003F00803FB60FB68114BD3F85B
:103FA000E030104A43F00103C2F8E0300D4BD3F883
:103FB000E03003F00103BB60BB680323FB61022315
:103FC0003B6201237B620023BB620223FB6207F199
:103FD0001C031946044806F0F3FA00BF3037BD460B
:103FE00080BD00BF0044025800000258000402587F
:103FF000000C004080B500AF224B234A1A60214BD1
:104000004FF416525A601F4B00229A601D4B00223B
:10401000DA601C4B00221A611A4B0C225A61194BB0
:1040200000229A61174B0022DA61164B00221A62B5
:10403000144B00225A62134B00229A6211480BF073
:104040002DF80346002B01D0FFF706F800210D489C
:104050000EF02FFA0346002B01D0FEF7FDFF0021E2
:1040600008480EF064FA0346002B01D0FEF7F4FF77
:1040700004480EF0E5F90346002B01D0FEF7ECFFF3
:1040800000BF80BDA4BB0024004C004080B500AF41
:10409000254B264A1A60244B254A5A60224B4FF47E
:1040A00080529A60204B4FF40052DA601E4B4FF45E
:1040B00080621A611C4B0C225A611B4B00229A61D0
:1040C000194B0022DA61184B00221A62164B0022AB
:1040D0005A62154B02229A62134B4FF480321A63D4
:1040E00011480AF0DBFF0346002B01D0FEF7B4FFB6
:1040F00000210D480EF0DDF90346002B01D0FEF73C
:10410000ABFF002108480EF012FA0346002B01D045
:10411000FEF7A2FF04480EF093F90346002B01D0EE
:10412000FEF79AFF00BF80BD38BC0024005000405D
:10413000A086010080B500AF224B234A1A60214BB4
:104140004FF4E1325A601F4B00229A601D4B00224F
:10415000DA601C4B00221A611A4B0C225A61194B6F
:1041600000229A61174B0022DA61164B00221A6274
:10417000144B00225A62134B00229A6211480AF033
:104180008DFF0346002B01D0FEF766FF00210D488E
:104190000EF08FF90346002B01D0FEF75DFF0021E2
:1041A00008480EF0C4F90346002B01D0FEF754FF77
:1041B00004480EF045F90346002B01D0FEF74CFFF2
:1041C00000BF80BDCCBC00240010014080B500AF12
:1041D000224B234A1A60214B4FF4E1325A601F4BA5
:1041E00000229A601D4B0022DA601C4B00221A61EB
:1041F0001A4B0C225A61194B00229A61174B00226C
:10420000DA61164B00221A62144B00225A62134BD9
:1042100000229A6211480AF041FF0346002B01D0A8
:10422000FEF71AFF00210D480EF043F90346002B5C
:1042300001D0FEF711FF002108480EF078F903467F
:10424000002B01D0FEF708FF04480EF0F9F80346F2
:10425000002B01D0FEF700FF00BF80BD60BD002431
:104260000044004080B500AF224B234A1A60214B26
:104270004FF4E1325A601F4B00229A601D4B00221E
:10428000DA601C4B00221A611A4B0C225A61194B3E
:1042900000229A61174B0022DA61164B00221A6243
:1042A000144B00225A62134B00229A6211480AF002
:1042B000F5FE0346002B01D0FEF7CEFE00210D488F
:1042C0000EF0F7F80346002B01D0FEF7C5FE0021E3
:1042D00008480EF02CF90346002B01D0FEF7BCFE77
:1042E00004480EF0ADF80346002B01D0FEF7B4FEF3
:1042F00000BF80BDF4BD00240048004080B5C4B0BC
:1043000000AF07F58873A3F58673186007F1FC0307
:1043100000221A605A609A60DA601A6107F1380365
:10432000C0220021184621F014F807F58873A3F580
:1043300086731B681B689A4A934240F0BC804FF01A
:1043400002024FF00003C7E90E230023C7F8B03084
:1043500007F13803184607F0A7FD0346002B01D0EC
:10436000FEF77AFE8F4BD3F8E8308E4A43F40023F1
:10437000C2F8E8308B4BD3F8E83003F400237B63BA
:104380007B6B884BD3F8E030864A43F00803C2F8D1
:10439000E030844BD3F8E03003F008033B633B6B21
:1043A0000323C7F8FC300223C7F800310023C7F805
:1043B00004310023C7F808310823C7F80C3107F18E
:1043C000FC031946784806F0FBF8784B784A1A60E7
:1043D000764B3F225A60754B00229A60734B002245
:1043E000DA60724B4FF480621A61704B00225A619E
:1043F0006E4B00229A616D4B4FF48072DA616B4B09
:104400004FF480321A62694B00225A62674801F009
:104410001DFE0346002B01D0FEF71EFE07F5887334
:10442000A3F586731B68614AC3F880205F4A07F5CD
:104430008873A3F586731B6893635E4B5E4A1A60AC
:104440005C4B40225A605B4B40229A60594B0022E1
:10445000DA60584B4FF480621A61564B00225A6161
:10446000544B00229A61534B0022DA61514B0022D7
:104470001A62504B00225A624E4801F0E7FD034693
:10448000002B01D0FEF7E8FD07F58873A3F58673CE
:104490001B68484ADA67474A07F58873A3F58673AD
:1044A0001B68936300220621342001F021FD342093
:1044B00001F038FD8FE207F58873A3F586731B685A
:1044C0001B683E4A93427FD14FF002024FF0000337
:1044D000C7E90E230023C7F8B03007F138031846A8
:1044E00007F0E2FC0346002B01D0FEF7B5FD2D4B93
:1044F000D3F8E8302B4A43F48013C2F8E830294B54
:10450000D3F8E83003F48013FB62FB6A254BD3F841
:10451000E030244A43F00403C2F8E030214BD3F8E2
:10452000E03003F00403BB62BB6A1E4BD3F8E030FB
:104530001C4A43F00203C2F8E0301A4BD3F8E030D3
:1045400003F002037B627B6A4FF48053C7F8FC30B0
:104550000223C7F800310023C7F804310023C7F84D
:1045600008310823C7F80C3107F1FC031946144839
:1045700006F026F82023C7F8FC300223C7F80031E4
:104580000023C7F804310023C7F808310E23C7F809
:104590000C3107F1FC0319460A4806F011F81AE23B
:1045A000004C004000440258000C025888BE002411
:1045B0007000024000BF002488000240005000400C
:1045C000000802580004025807F58873A3F58673A3
:1045D0001B681B688C4A934240F0BE804FF001027A
:1045E0004FF00003C7E90E230023C7F8B43007F1EA
:1045F0003803184607F058FC0346002B01D0FEF79D
:104600002BFD824BD3F8F030804A43F01003C2F800
:10461000F0307E4BD3F8F03003F010033B623B6A7E
:104620007A4BD3F8E030794A43F00103C2F8E03026
:10463000764BD3F8E03003F00103FB61FB694FF4E4
:10464000C063C7F8FC300223C7F800310023C7F865
:1046500004310023C7F808310723C7F80C3107F1EC
:10466000FC0319466A4805F0ABFF6A4B6A4A1A60B8
:10467000684B29225A60674B00229A60654B0022E2
:10468000DA60644B4FF480621A61624B00225A6117
:10469000604B00229A615F4B4FF48072DA615D4B90
:1046A0004FF440321A625B4B00225A62594801F0C3
:1046B000CDFC0346002B01D0FEF7CEFC07F5887336
:1046C000A3F586731B68534AC3F88020514A07F547
:1046D0008873A3F586731B689363504B504A1A6026
:1046E0004E4B2A225A604D4B40229A604B4B00227F
:1046F000DA604A4B4FF480621A61484B00225A61DB
:10470000464B00229A61454B0022DA61434B4FF43D
:1047100040321A62414B00225A62404801F096FC36
:104720000346002B01D0FEF797FC07F58873A3F52D
:1047300086731B68394ADA67384A07F58873A3F528
:1047400086731B68936300220521252001F0D0FBAE
:10475000252001F0E7FB3EE107F58873A3F586739A
:104760001B681B682F4A93425ED14FF002024FF044
:104770000003C7E90E230023C7F8B03007F1380360
:10478000184607F091FB0346002B01D0FEF764FCAE
:104790001E4BD3F8E8301D4A43F40033C2F8E8302A
:1047A0001A4BD3F8E83003F40033BB61BB69174BF5
:1047B000D3F8E030154A43F00103C2F8E030134B60
:1047C000D3F8E03003F001037B617B690C23C7F869
:1047D000FC300223C7F800310023C7F8043100235E
:1047E000C7F808310723C7F80C3107F1FC03194655
:1047F000074805F0E5FE00220521262001F078FBA0
:10480000262001F08FFBE6E0001001400044025832
:104810000000025878BF002410000240F0BF0024BE
:10482000280002400044004007F58873A3F5867312
:104830001B681B686A4A934240F0CD804FF0020229
:104840004FF00003C7E90E230023C7F8B03007F18B
:104850003803184607F028FB0346002B01D0FEF76B
:10486000FBFB604BD3F8E8305E4A43F48023C2F888
:10487000E8305C4BD3F8E83003F4802207F5887306
:10488000A3F580731A6007F58873A3F580731B681E
:10489000544BD3F8E030534A43F00403C2F8E030FD
:1048A000504BD3F8E03003F0040207F58873A3F50A
:1048B00082731A6007F58873A3F582731B684FF43F
:1048C0004063C7F8FC300223C7F800310023C7F863
:1048D00004310023C7F808310723C7F80C3107F16A
:1048E000FC031946404805F06BFE404B404A1A60F5
:1048F0003E4B2D225A603D4B00229A603B4B0022DA
:10490000DA603A4B4FF480621A61384B00225A61E8
:10491000364B00229A61354B4FF48072DA61334B8B
:104920004FF400321A62314B00225A622F4801F0D4
:104930008DFB0346002B01D0FEF78EFB07F5887335
:10494000A3F586731B68294AC3F88020274A07F518
:104950008873A3F586731B689363264B264A1A60F7
:10496000244B2E225A60234B40229A60214B002276
:10497000DA60204B4FF480621A611E4B00225A61AC
:104980001C4B00229A611B4B0022DA61194B4FF439
:1049900080321A62174B00225A62164801F056FB09
:1049A0000346002B01D0FEF757FB07F58873A3F5EC
:1049B00086731B680F4ADA670E4A07F58873A3F5FA
:1049C00086731B68936300220621272001F090FA6A
:1049D000272001F0A7FA00BF07F58877BD4680BD04
:1049E00000480040004402580008025868C00024F3
:1049F00040000240E0C000245800024080B582B070
:104A000000AF78607B681B68474A93421AD1474BD6
:104A1000D3F8E830454A23F40023C2F8E8300321F4
:104A2000434805F087FF7B68D3F88030184601F0D3
:104A300069FE7B68DB6F184601F064FE342001F0EC
:104A40007FFA6CE07B681B683A4A934211D1374B7E
:104A5000D3F8E830354A23F48013C2F8E8304FF435
:104A60008051354805F066FF2021344805F062FF8B
:104A700055E07B681B68324A93421BD12B4BD3F81D
:104A8000F0302A4A23F01003C2F8F0304FF4C0612E
:104A90002C4805F04FFF7B68D3F88030184601F0B2
:104AA00031FE7B68DB6F184601F02CFE252001F0FB
:104AB00047FA34E07B681B68234A93420FD11B4BB3
:104AC000D3F8E830194A23F40033C2F8E8300C2157
:104AD0001C4805F02FFF262001F032FA1FE07B680A
:104AE0001B681A4A93421AD1104BD3F8E8300F4A88
:104AF00023F48023C2F8E8304FF440610E4805F0FB
:104B000019FF7B68D3F88030184601F0FBFD7B6805
:104B1000DB6F184601F0F6FD272001F011FA00BF07
:104B20000837BD4680BD00BF004C0040004402581D
:104B3000000C0258005000400008025800040258BF
:104B400000100140000002580044004000480040AE
:104B5000DFF838D0FFF7F8F8FFF756F80C480D49A2
:104B60000D4A002302E0D458C4500433C4188C42C8
:104B7000F9D30A4A0A4C002301E013600432A2422E
:104B8000FBD320F07FFCFEF753F9FEE7000008247A
:104B90000000002464090024848D02088009002498
:104BA000AC9B0124FEE7000080B582B000AF03207B
:104BB00001F093F906F060FF0246154B9B691B0A52
:104BC00003F00F031349CB5C03F01F0322FA03F336
:104BD0007B600F4B9B6903F00F030E4AD35C03F01D
:104BE0001F037A6822FA03F30B4A13600B4A7B68AF
:104BF00013600F20FEF73CFE0346002B01D001237B
:104C000002E0FEF717FE002318460837BD4680BDB8
:104C1000004402583C7F0208100000240C000024CD
:104C200080B400AF064B1B781A46064B1B68134432
:104C3000044A136000BFBD465DF8047B704700BFA7
:104C40001800002458C1002480B400AF034B1B6837
:104C50001846BD465DF8047B704700BF58C100246C
:104C600080B400AF034B1B681B0C1846BD465DF8B3
:104C7000047B70470010005C80B483B000AF7860A4
:104C800039607B689B6823F47C123B681A437B681D
:104C90009A6000BF0C37BD465DF8047B704780B456
:104CA00083B000AF786039607B689B6823F0E07266
:104CB0003B681A437B689A6000BF0C37BD465DF8BD
:104CC000047B704780B483B000AF78607B689B68DA
:104CD00003F0E07318460C37BD465DF8047B70475F
:104CE00080B487B000AF786039603B68C3F31303CA
:104CF000002B07D13B689B0E03F01F03012202FA31
:104D000003F315E03B683B613B6993FAA3F3FB6057
:104D1000FB687B617B69002B01D1202303E07B6969
:104D2000B3FA83F3DBB203F01F03012202FA03F3A9
:104D30007A68D2691A437B68DA6100BF1C37BD46C6
:104D40005DF8047B704780B487B000AFF860B9604D
:104D50007A603B60FB6860331A46BB689B00134473
:104D60007B617B691B6803F000427B6803F0F841BC
:104D70003B680B431A437B691A6000BF1C37BD4672
:104D80005DF8047B704780B485B000AFF860B9600F
:104D90007A60FB681B6923F4F042BB6803F01F03D1
:104DA000796801FA03F31A43FB681A6100BF1437EC
:104DB000BD465DF8047B704780B487B000AFF860F3
:104DC000B9607A60FB6860331A46BB689B00134485
:104DD0007B617B691B6823F000427B681A437B6917
:104DE0001A6000BF1C37BD465DF8047B704780B475
:104DF00087B000AFF860B9607A60FB6830331A465C
:104E0000BB681B0A9B0003F00C0313447B617B69A6
:104E10001A68BB6803F01F031F2101FA03F3DB4389
:104E20001A407B689B0E03F01F01BB6803F01F0351
:104E300001FA03F31A437B691A6000BF1C37BD46B1
:104E40005DF8047B704780B487B000AFF860B9604C
:104E50007A60FB6814331A46BB685B0E9B0003F054
:104E6000040313447B617B691A68BB681B0D03F064
:104E70001F03072101FA03F3DB431A40BB681B0D34
:104E800003F01F03796801FA03F31A437B691A6080
:104E900000BF1C37BD465DF8047B704780B485B009
:104EA00000AFF860B9607A60FB68D3F8C020BB68D7
:104EB000C3F31303DB431A407B6803F0180308496C
:104EC000D940BB680B40C3F313031A43FB68C3F814
:104ED000C02000BF1437BD465DF8047B704700BF9B
:104EE000FFFF0F0080B483B000AF78607B689A68E2
:104EF000044B13407A68936000BF0C37BD465DF8E1
:104F0000047B7047C0FFFF5F80B483B000AF786060
:104F10007B689B6803F00053B3F1005F01D101236C
:104F200000E0002318460C37BD465DF8047B70474F
:104F300080B483B000AF78607B689A68054B1340FB
:104F400043F080527B689A6000BF0C37BD465DF825
:104F5000047B7047C0FFFF6F80B483B000AF786000
:104F60007B689B6803F08053B3F1805F01D101231C
:104F700000E0002318460C37BD465DF8047B7047FF
:104F800080B483B000AF78607B689B6803F0010356
:104F9000012B01D1012300E0002318460C37BD4648
:104FA0005DF8047B704780B483B000AF78607B68A5
:104FB0009B6803F00403042B01D1012300E00023CC
:104FC00018460C37BD465DF8047B704780B483B04B
:104FD00000AF78607B689B6803F00803082B01D161
:104FE000012300E0002318460C37BD465DF8047B22
:104FF0007047000090B589B000AF78600023FB7760
:105000000023BB607B68002B01D101238FE17B680B
:10501000DB68002B7B685B6D002B09D17868FBF7A0
:10502000F5FD7B6800229A657B68002283F850209A
:105030007B681B681846FFF767FF0346002B04D008
:105040007B681B681846FFF74DFF7B681B68184696
:10505000FFF782FF0346002B14D17B681B681846BC
:10506000FFF766FF874B1B689B09874AA2FB032358
:105070009B090133BB6002E0BB68013BBB60BB68BE
:10508000002BF9D17B681B681846FFF765FF0346C4
:10509000002B0DD17B685B6D43F010027B685A6575
:1050A0007B689B6D43F001027B689A650123FB7767
:1050B0007B681B681846FFF776FF78617B685B6D3D
:1050C00003F01003002B40F029817B69002B40F096
:1050D00025817B685B6D23F4817343F002027B685A
:1050E0005A657B681B681846FFF74AFF0346002B8A
:1050F00036D17B681B68654A934204D07B681B6885
:10510000634A93420ED16148FFF73AFF0446604874
:10511000FFF736FF03462343002B0CBF0123002378
:10512000DBB208E05B48FFF72BFF0346002B0CBF08
:1051300001230023DBB2002B12D07B681B68534A8B
:10514000934204D07B681B68514A934201D1524A72
:1051500000E0524A7B685B6819461046FFF78CFDF9
:10516000FFF77EFD034641F20302934214D97B68A8
:105170009B68102B10D17B685B7D5A037B681B6B8F
:105180001A437B689B681A437B681B7F1B0413438D
:1051900043F00C03BB610DE07B685B7D5A037B68C9
:1051A0001B6B1A437B689B681A437B681B7F1B043D
:1051B0001343BB617B681B7F012B06D17B681B6A95
:1051C000013B5B04BA691343BB617B685B6A002BDC
:1051D00009D07B685B6A03F478727B689B6A13432F
:1051E000BA691343BB617B681B68DA682C4B1340B8
:1051F0007A681268B9690B43D3607B681B681846EC
:10520000FFF7D1FE38617B681B681846FFF7DEFEAA
:10521000F8603B69002B5FD1FB68002B5CD17B6899
:105220001B7D9A037B68DB6A1343BB617B681B6849
:10523000DA681C4B13407A681268B9690B43D36073
:105240007B6893F83830012B30D17B685B6A002B88
:105250007B681B681A69144B13407A68D26B013A59
:1052600011047A68126C11437A68526C11437A689F
:10527000926C0A431A437B681B6842F001021A6170
:105280001CE000BF0C000024632D3E0500200240FE
:1052900000210240006002580023024000630258CF
:1052A00003C0F0FFFCBFFFFF1EF800FC7B681B681B
:1052B0001A697B681B6822F001021A617B681B680F
:1052C0001B6923F070417B685A6B7B681B680A433B
:1052D0001A61786800F020FB7B68DB68012B0CD139
:1052E0007B681B681B6B23F00F017B689B695A1E50
:1052F0007B681B680A431A6307E07B681B681A6BAC
:105300007B681B6822F00F021A637B685B6D23F0D9
:10531000030343F001027B685A6507E07B685B6D1D
:1053200043F010027B685A650123FB77FB7F184628
:105330002437BD4690BD00BF90B58DB000AF7860FA
:105340003960002387F82F300023FB603B68DB685F
:10535000654A93427B6893F85030012B01D10223B8
:10536000C7E27B68012283F850207B681B681846DF
:10537000FFF719FE0346002B40F0AC823B681B6828
:10538000002B2CDB3B681B68C3F31303002B08D1F5
:105390003B681B689B0E03F01F03012202FA03F314
:1053A00016E03B681B687B617B6993FAA3F33B6162
:1053B0003B69BB61BB69002B01D1202303E0BB69C2
:1053C000B3FA83F3DBB203F01F03012202FA03F303
:1053D0007A681268D1697A6812680B43D3617B6876
:1053E00018683B6859683B681B681A46FFF7FFFC62
:1053F0007B681B681846FFF7D6FDB8627B681B68A0
:105400001846FFF7E3FD7862BB6A002B40F0B880D6
:105410007B6A002B40F0B4807B6818683B68196891
:105420003B689B681A46FFF70EFD304B1B6803F084
:105430007043B3F1805F0BD13B685A697B681B688E
:10544000DB689B0803F007035B0002FA03F31DE02F
:105450007B681B68DB6803F01003002B0BD13B68F3
:105460005A697B681B68DB689B0803F007035B00D5
:1054700002FA03F30AE03B685A697B681B68DB6841
:105480009B0803F004035B0002FA03F33B623B68F2
:105490001B69042B2CD07B6818683B6819693B6832
:1054A0001A683B6AFFF74FFC7B6818683B6819690C
:1054B0003B685B7E012B02D14FF0004300E00023EC
:1054C0001A46FFF779FC7B6818683B6819693B68E6
:1054D0001B7E012B02D14FF4006300E000231A462B
:1054E000FFF751FC4CE000BF0000FF470010005CDC
:1054F0007B681B681B6E03F0F8423B681B689B06C9
:105500009A4207D17B681B681A6E7B681B6822F081
:1055100000421A667B681B685B6E03F0F8423B68CA
:105520001B689B069A4207D17B681B685A6E7B6892
:105530001B6822F000425A667B681B689B6E03F072
:10554000F8423B681B689B069A4207D17B681B6840
:105550009A6E7B681B6822F000429A667B681B6823
:10556000DB6E03F0F8423B681B689B069A4207D14A
:105570007B681B68DA6E7B681B6822F00042DA6683
:105580007B681B681846FFF7FBFC0346002B40F0C6
:10559000AA817B6818683B6819683B68DB681A4613
:1055A000FFF77CFC3B68DB68874A934240F09A80B7
:1055B0007B681A687B681B6884498B4247D13B68CB
:1055C0001B6883498B4240D03B681B6881498B42F2
:1055D00039D03B681B6880498B4232D03B681B68DE
:1055E0007E498B422BD03B681B687D498B4224D07F
:1055F0003B681B687B498B421DD03B681B687A491E
:105600008B4216D03B681B6878498B420FD03B68B1
:105610001B6877498B4208D03B681B6875498B42F1
:1056200001D1754B5AE0002358E0744B56E0744B9F
:1056300054E06E4B52E06C4B50E0724B4EE0724BBC
:105640004CE0724B4AE0724B48E0012346E07B6835
:105650001B6870498B4240D13B681B685C498B4298
:1056600039D03B681B685B498B4232D03B681B6872
:1056700059498B422BD03B681B6858498B4224D038
:105680003B681B6856498B421DD03B681B685549D7
:105690008B4216D03B681B6853498B420FD03B6846
:1056A0001B6852498B4208D03B681B6851498B42AA
:1056B00001D1514B12E0002310E0514B0EE04B4B57
:1056C0000CE0494B0AE04F4B08E04F4B06E04F4BD4
:1056D00004E04F4B02E0012300E00023194610468E
:1056E000FFF7FEFA3B681B68002B80F2FC807B68AA
:1056F0001B68364A934204D07B681B68454A934234
:1057000001D1454B00E0454B1846FFF7DBFAF86145
:105710007B681B682D4A934204D07B681B683D4A16
:1057200093420ED12948FFF72BFC04463948FFF776
:1057300027FC03462343002B0CBF01230023DBB2CD
:1057400008E03748FFF71CFC0346002B0CBF012381
:105750000023DBB2002B00F0B3803B681B68314AAA
:10576000934265D1FB6903F40003002B60D17B6891
:105770001B682B4A934240F0B6807B681B68134A33
:10578000934204D07B681B68224A934201D1224A8B
:1057900000E0224AFB6943F4000319461046FFF774
:1057A0007EFA214B1B689B09204AA2FB03239B091D
:1057B00001335B00FB6002E0FB68013BFB60FB68C0
:1057C000002BF9D18FE000BF0000FF47002002400E
:1057D00002003004040060080800900C1000C010A3
:1057E0002000F0140004002A0008302E001060325F
:1057F000000021430000844B0000B84F00005247D6
:10580000002090360002B025000180218000501D4C
:10581000400020190021024000230240006302588A
:1058200000600258000084CB0C000024632D3E056C
:105830003B681B68314A93421ED1FB6903F08073B9
:10584000002B19D17B681B682D4A93424BD17B6892
:105850001B682C4A934204D07B681B682A4A9342F7
:1058600001D12A4A00E02A4AFB6943F080731946B5
:105870001046FFF714FA36E03B681B68254A93424E
:1058800031D1FB6903F48003002B2CD17B681B68AA
:105890001B4A934227D17B681B681A4A934204D063
:1058A0007B681B68184A934201D1184A00E0184AE5
:1058B000FB6943F4800319461046FFF7F0F912E044
:1058C0007B685B6D43F020027B685A65012387F893
:1058D0002F3008E07B685B6D43F020027B685A65DF
:1058E000012387F82F307B68002283F8502097F837
:1058F0002F3018463437BD4690BD00BF000052C758
:1059000000600258002002400021024000230240B3
:10591000006302580000B8CF80B584B000AF786053
:105920007B681B687A4A934204D07B681B68794A7B
:10593000934209D1784B9B6803F44033002B14BF8A
:1059400001230023DBB208E0744B9B6803F440336F
:10595000002B14BF01230023DBB2002B1CD006F068
:1059600005FAF8607B685B68B3F5403F10D0B3F58B
:10597000403F73D8B3F5803F02D0B3F5003F6DD1FF
:105980007B685B681B0CFA68B2FBF3F3FB6068E0B2
:10599000FB689B08FB6064E04FF400204FF00001BF
:1059A00007F08CFCF8607B685B68B3F5301F51D062
:1059B000B3F5301F54D8B3F5201F47D0B3F5201FDF
:1059C0004ED8B3F5101F3DD0B3F5101F48D8B3F52E
:1059D000001F33D0B3F5001F42D8B3F5E01F29D024
:1059E000B3F5E01F3CD8B3F5C01F1AD0B3F5C01F04
:1059F00036D8B3F5A01F14D0B3F5A01F30D8B3F537
:105A0000801F0ED0B3F5801F2AD8B3F5402F08D0E1
:105A1000B3F5402F24D8B3F5802F02D0B3F5002F73
:105A20001ED17B685B689B0C5B00FA68B2FBF3F3EA
:105A3000FB6016E0FB681B09FB6012E0FB685B097A
:105A4000FB600EE0FB689B09FB600AE0FB68DB097A
:105A5000FB6006E0FB681B0AFB6002E000BF00E0A1
:105A600000BFFFF7FDF8034641F20302934215D849
:105A7000FB682B4A934208D97B681B689A687B684D
:105A80001B6842F480729A603EE07B681B689A68EB
:105A90007B681B6822F480729A6035E0FB685B08C3
:105AA000FB60FB681F4A934208D87B681B689A68B2
:105AB0007B681B6822F440729A6025E0FB681A4AF2
:105AC00093420AD87B681B689B6823F440727B680A
:105AD0001B6842F480729A6016E0FB68134A934296
