:020000040800F2
:1000000000000824ED400008E52E0008ED2E000851
:10001000F52E0008FD2E0008052F00080000000046
:10002000000000000000000000000000B1390108DD
:100030000D2F000800000000413C0108B116010826
:100040004141000841410008414100084141000888
:100050004141000841410008414100084141000878
:100060004141000841410008414100081D2F00089E
:10007000312F0008452F0008592F00086D2F000868
:10008000812F0008952F000841410008A92F000882
:100090004141000841410008414100084141000838
:1000A0004141000841410008414100084141000828
:1000B0004141000841410008414100084141000818
:1000C0004141000841410008414100084141000808
:1000D00041410008BD2F0008D12F0008DD2F000886
:1000E0004141000841410008000000004141000872
:1000F00041410008414100084141000841410008D8
:1001000041410008414100084141000841410008C7
:10011000F12F0008BD2D00080530000841410008FE
:1001200041410008414100084141000841410008A7
:100130004141000841410008414100084141000897
:1001400000000000000000000000000000000000AF
:100150004141000841410008414100084141000877
:100160004141000841410008414100084141000867
:1001700041410008414100084141000800000000E1
:100180004141000841410008414100084141000847
:100190004141000841410008414100084141000837
:1001A0004141000841410008414100084141000827
:1001B0004141000841410008414100084141000817
:1001C0004141000841410008414100084141000807
:1001D00041410008414100084141000841410008F7
:1001E00041410008414100084141000841410008E7
:1001F00041410008414100084141000841410008D7
:1002000041410008414100084141000841410008C6
:1002100041410008414100084141000841410008B6
:100220004141000841410008414100080000000030
:100230004141000841410008000000004141000820
:100240004141000841410008414100084141000886
:100250004141000841410008414100084141000876
:100260004141000841410008414100084141000866
:1002700041410008414100084141000800000000E0
:1002800041410008414100084141000800000000D0
:080290000000000041410008DC
:1002A00010B5054C237833B9044B13B10448AFF3B0
:1002B00000800123237010BDE00200240000000034
:1002C0005836020808B5034B1BB103490348AFF386
:1002D000008008BD00000000E40200245836020837
:1002E00010F8012B11F8013B012A28BF9A42F7D0E0
:1002F000D01A7047034613F8012B002AFBD1181AB5
:1003000001387047000000000000000000000000FD
:1003100001F0FF01102A2BDB10F0070F08D010F8B6
:10032000013B013A8B422DD010F0070F42B3F6D1BA
:10033000F0B441EA012141EA014122F007047FF0D3
:1003400000070023F0E80256083C85EA010586EA2A
:10035000010685FA47F5A3FA87F586FA47F6A5FA66
:1003600087F68EB9EED1F0BC01F0FF0102F0070272
:1003700032B110F8013B013A83EA010313B1F8D11D
:100380000020704701387047002D06BF35460338FE
:10039000073815F0010F07D1013015F4807F02BF37
:1003A000013015F4C03F0130F0BC0138704700BF88
:1003B0007BB972B90029BEBF00204FF0004106E0B2
:1003C00008BF00281CBF6FF000414FF0FF3000F065
:1003D000D3B9ADF1080C6DE904CE002909DB002B7F
:1003E0001ADB00F04DF8DDF804E0DDE9022304B08B
:1003F0007047404261EB4101002B1BDB00F040F8ED
:10040000DDF804E0DDE9022304B0404261EB410184
:10041000524263EB43037047524263EB430300F0E5
:100420002FF8DDF804E0DDE9022304B0404261EB7F
:1004300041017047524263EB430300F021F8DDF8BD
:1004400004E0DDE9022304B0524263EB430370474A
:1004500053B94AB9002908BF00281CBF4FF0FF312B
:100460004FF0FF3000F088B9ADF1080C6DE904CE13
:1004700000F006F8DDF804E0DDE9022304B070477F
:100480002DE9F047089D0F4604468C46002B48D1C5
:100490008A42164661D9B2FA82F34BB1C3F1200207
:1004A00001FA03FC20FA02F29E4042EA0C0C9C4046
:1004B0004FEA164EB7B2BCFBFEF1220C0EFB11CC7C
:1004C00042EA0C4201FB07F0904209D9B21801F14F
:1004D000FF3C80F0EE80904240F2EB8002393244E3
:1004E000121AA4B2B2FBFEF00EFB102244EA024440
:1004F00000FB07F7A74209D9341900F1FF3280F059
:10050000DA80A74240F2D7803444023840EA014002
:10051000E41B00211DB1DC400023C5E90043BDE818
:10052000F0878B4206D90DB1C5E9000100210846CC
:10053000BDE8F087B3FA83F1002948D1BB4202D36A
:10054000824200F20781841A67EB0302012094467D
:10055000002DE4D0C5E9004CE1E7002A00F09280CC
:10056000B2FA82F3002B40F0A8808A1A4FEA164EA6
:100570001FFA86FC0121200CB2FBFEF70EFB1722AE
:1005800040EA02420CFB07F0904207D9B21807F18B
:10059000FF3802D2904200F2E2804746121AA4B21B
:1005A000B2FBFEF00EFB102244EA02440CFB00FCFE
:1005B000A44507D9341900F1FF3202D2A44500F254
:1005C000CB801046A4EB0C0440EA0740A2E7C1F13F
:1005D00020068B4022FA06FC4CEA030C07FA01F4D1
:1005E00020FA06F3F7404FEA1C49234300FA01F8CA
:1005F0001FFA8CFEB7FBF9F01C0C09FB107744EADC
:10060000074400FB0EF7A74202FA01F20AD91CEBDD
:10061000040400F1FF3A80F09B80A74240F29880EA
:1006200002386444E41B9FB2B4FBF9F309FB1344A2
:1006300047EA044403FB0EFEA64509D91CEB04045B
:1006400003F1FF3780F08280A6457FD9023B6444E6
:1006500043EA0040A4EB0E04A0FB02E7BC42734651
:10066000B94663D360D05DB1B8EB030264EB090413
:1006700004FA06F622FA01F31E43CC40C5E90064F1
:1006800000214CE76208480842EAC1710B0C43EABA
:1006900000438AB242EA0342B3FBF6F1E407B446F0
:1006A0003746B6461F23B0FBF6F0D21B41EA0041A5
:1006B00061E7614614E7104628E7C3F1200120FAFC
:1006C00001F29E4027FA01F19F403A434FEA164E4D
:1006D0001FFA86FCB1FBFEF70EFB1710110C41EA66
:1006E000004107FB0CF8884504FA03F43AD9711865
:1006F00007F1FF3001D288451FD8A1EB0801B1FBFB
:10070000FEF808FB0CF70EFB181192B242EA014208
:10071000BA422FD2B21808F1FF31C6D2BA42C4D2BF
:10072000A8F102013244C0E7F0459CD2BEEB0203BF
:1007300067EB0C070138B94695E7A6EB080841447A
:10074000B81EB1FBFEF808FB0CF7DCE73B467FE781
:10075000504667E70846FBE63444023832E7023F7A
:1007600032441BE7A1EB08013846B1FBFEF808FB59
:100770000CF7C8E7414698E7704700BF80B58AB0DC
:1007800000AF07F11C0300221A605A609A603B46D2
:1007900000221A605A609A60DA601A615A619A619E
:1007A000384B394A1A60374B00225A60354B0822C1
:1007B0009A60344B0122DA60324B08221A61314BC5
:1007C00000221A752F4B01225A752E4B02229A6174
:1007D0002C4B00221A772B4B00225A62294B002205
:1007E0009A62284B0022DA62264B00221A63254BBC
:1007F00000225A63234B002283F83820214B012228
:10080000DA63204803F0C4FE0346002B01D001F058
:10081000F1FE0023FB6107F11C031946194804F09F
:100820007BFC0346002B01D001F0E4FE174B3B603C
:1008300006237B600523BB6040F2FF73FB6004234B
:100840003B6100237B6100237B763B4619460D48C4
:1008500004F040F80346002B01D001F0CBFE0C4B16
:100860003B600C237B603B461946064804F032F897
:100870000346002B01D001F0BDFE00BF2837BD4666
:1008800080BD00BFFC02002400200240040060087C
:100890000800900C80B58AB000AF786007F11403AF
:1008A00000221A605A609A60DA601A617B681B68DD
:1008B0003E4A934275D13E4BD3F8D8303C4A43F080
:1008C0002003C2F8D8303A4BD3F8D83003F02003D5
:1008D0003B613B69364BD3F8E030354A43F00103C6
:1008E000C2F8E030324BD3F8E03003F00103FB6094
:1008F000FB682F4BD3F8E0302D4A43F02003C2F8B9
:10090000E0302B4BD3F8E03003F02003BB60BB6832
:1009100040237B610323BB610023FB6107F11403C8
:100920001946244808F070FE4FF400637B610323EE
:10093000BB610023FB6107F1140319461E4808F050
:1009400063FE1E4B1E4A1A601C4B09225A601B4B49
:1009500000229A60194B0022DA60184B4FF4806233
:100960001A61164B4FF400625A61144B4FF4005257
:100970009A61124B4FF48072DA61104B00221A62B6
:100980000E4B00225A620D4804F02EFE0346002B47
:1009900001D001F02FFE7B68084ADA64074A7B68C1
:1009A000936300BF2837BD4680BD00BF00200240D2
:1009B000004402580000025800140258600300244A
:1009C000A000024080B485B000AF78600E4B1B6879
:1009D0000E4AA2FB03239B0C7A6802FB03F3DB089D
:1009E000FB60FB68002B03D10123FB6000E000BF2C
:1009F000FB685A1EFA60002BF9D100BF00BF143704
:100A0000BD465DF8047B70470C00002483DE1B4369
:100A100080B586B000AFF8607B600B46FB72134672
:100A2000BB720023FB750023BB750023BB827B6870
:100A3000002B01D103230AE107F11303012118461A
:100A400000F042FA0346002B10D10120FFF7BAFF55
:100A5000BB8A0133BB82BB8AB3F57A7F40F0F58055
:100A60000023BB827B68013B7B60EEE0FB7D162BA5
:100A700000F2D68001A252F823F000BFD90A000884
:100A8000FB0A0008650B0008210C0008930B000806
:100A9000210C0008210C0008210C0008CD0B0008D7
:100AA000210C0008210C0008210C0008210C000872
:100AB000210C0008210C0008210C0008210C000862
:100AC000210C0008210C0008210C0008210C000852
:100AD000210C00080B0C0008FB7C552B0AD1FA7C7A
:100AE000FB681A70FB681A78FB6883F820200123E2
:100AF000FB7599E00023FB7596E0BB7A002B02D0D2
:100B0000012B16D02BE0FB7C552B0FD1FA7CFB6818
:100B10005A70FB6893F82020FB685B781344DAB2C4
:100B2000FB6883F820200223FB751AE00023FB7585
:100B300017E0FB7CAF2B0FD1FA7CFB685A70FB6887
:100B400093F82020FB685B781344DAB2FB6883F8E3
:100B500020200223FB7504E00023FB7501E0022343
:100B600075E061E0FB7CFA7A9A420FD1FA7CFB686F
:100B70009A70FB6893F82020FB689B781344DAB2E4
:100B8000FB6883F820200423FB754DE00023FB75F0
:100B90004AE0FB7C1C2B02D90023FB7544E0FA7C65
:100BA000FB68DA70FB6893F82020FB68DB7813445D
:100BB000DAB2FB6883F82020FB68DB78002B02D1D7
:100BC0001623FB7530E00823FB752DE0BB7DF97C17
:100BD000FA6813440A461A71FB6893F82020BB7D1B
:100BE000F9680B441B791344DAB2FB6883F82020C0
:100BF000BB7D0133BB75FB68DB78BA7D9A4212D1AD
:100C00000023BB751623FB750DE0FB6893F82020CD
:100C1000FB7C9A4201D1002319E00023FB7503E01D
:100C20000023FB7500E000BF0120FFF7CBFEBB8A6D
:100C30000133BB82BB8AB3F57A7F7FF4F8AE002321
:100C4000BB827B68013B7B60F1E600BFEFE61846A4
:100C50001837BD4680BD00BF80B590B000AF0346D9
:100C6000B9607A60FB7307F1100321220021184656
:100C700021F083FC552387F83430AF2387F83530D3
:100C8000FB7B63F07F03DBB287F83630012387F804
:100C90003730002387F8383097F8342097F835300C
:100CA0001344DAB297F836301344DAB297F8373093
:100CB0001344DAB297F838301344DBB287F839308E
:100CC00007F134030621184600F060F9F97B07F1BB
:100CD00010007B680122FFF79BFE034687F83E3039
:100CE00097F83E30002B01D0002319E0002387F84D
:100CF0003F300FE097F83F2097F83F30B9680B443A
:100D000040323A4412F82C2C1A7097F83F300133D5
:100D100087F83F30FB7C97F83F209A42EAD3FB7C70
:100D200018464037BD4680BD80B584B000AF7860BE
:100D3000786800F041F964220D490320FFF78CFF29
:100D40000346FB73FB7B002B01D101230CE06422E3
:100D500008490420FFF780FF0346FB73FB7B002B51
:100D600001D1012300E0002318461037BD4680BDA5
:100D7000D8030024D903002480B58CB000AF78607C
:100D8000396007F10C0321220021184621F0F5FB00
:100D90007B68002B01D1012352E007F10C003B6876
:100DA00000220121FFF734FE034687F82F3097F821
:100DB0002F30002B01D0012342E07B7C1BB21B02B1
:100DC0001BB21A463B7C134307EE903AB8EEE77A23
:100DD000DFED1D6AC7EE267A9FED1C7A67EE877AF3
:100DE0007B68C3ED007AFB7C1BB21B021BB21A4668
:100DF000BB7C134307EE903AB8EEE77ADFED126A58
:100E0000C7EE267A9FED117A67EE877A7B68C3ED8D
:100E1000017A7B7D1BB21B021BB21A463B7D13433A
:100E200007EE903AB8EEE77ADFED076AC7EE267A6A
:100E30009FED067A67EE877A7B68C3ED027A00231E
:100E400018463037BD4680BD0000004700003443DF
:100E500080B485B000AF78600B467B807B68002B48
:100E600004D0184BB3F88030002B01D1012323E0CC
:100E70000023FB811BE0FB897A681344114AB2F816
:100E8000842019780F4B99540E4BB3F884300133FA
:100E90000C4AB2F88020B3FBF2F101FB02F29B1A7C
:100EA0009AB2084BA3F88420FB890133FB81FA89AD
:100EB0007B889A42DFD3002318461437BD465DF87D
:100EC000047B7047DC03002480B485B000AF7860F9
:100ED0000B467B807B68002B04D02B4BB3F8803013
:100EE000002B01D1002348E0274BB3F88420264B88
:100EF000B3F882309A4208D3234BB3F88420224BB4
:100F0000B3F88230D31AFB810CE01F4BB3F880207A
:100F10001D4BB3F88230D31A9AB21B4BB3F884300E
:100F20001344FB817A88FB899A4201D9FB897B8033
:100F30000023BB811CE0144BB3F882301946BB89F7
:100F40007A681344104A525C1A700F4BB3F882301F
:100F500001330D4AB2F88020B3FBF2F101FB02F23B
:100F60009B1A9AB2084BA3F88220BB890133BB813C
:100F7000BA897B889A42DED37B8818461437BD46EF
:100F80005DF8047B704700BFDC03002480B582B0AD
:100F900000AF78600B46FB70064B1868FB789AB27E
:100FA0004FF0FF3379680DF00AF900BF0837BD46EE
:100FB00080BD00BF0000002480B582B000AF786023
:100FC0003B4B3C4A1A603C4B8022A3F880203A4BB2
:100FD0000022A3F88220384B0022A3F88420344B4F
:100FE0001B68364A1A60324B1B687A685A60304B6D
:100FF0001B6800229A602E4B1B680022DA602C4B83
:101000001B6800221A612A4B1B680C225A61284B6C
:101010001B6800229A61264B1B680022DA61244B70
:101020001B6800221A62224B1B6800225A62204B66
:101030001B6800229A621E4B1B6818460DF038F898
:101040000346002B29D11A4B1B680021184610F0CB
:101050003AFA0346002B22D1154B1B680021184693
:1010600010F06FFA0346002B1BD1114B1B6818467A
:1010700010F0F0F90346002B15D10D4B1B681B68CF
:1010800008221A620A4B1B681B681A68084B1B6807
:101090001B6842F020021A6006E000BF04E000BFB7
:1010A00002E000BF00E000BF0837BD4680BD00BFC2
:1010B00000000024F8B30024DC03002400440040B6
:1010C00080B582B000AF1D4B1B68002B32D01B4B8C
:1010D0001B681B68002B2DD0194BB3F88030002BF8
:1010E00028D0164B1B681B68DB6903F00803082B2C
:1010F0000CD1124B1B681B6808221A620F4B1B682D
:101100001B68DB690D4B1B681B685B6A0B4B1B681C
:101110001B68DB6903F02003202B0CD1074B1B68F5
:101120001B685B6ADBB2FB71FB1D01211846FFF7F0
:101130008FFE00E000BF0837BD4680BD00000024E0
:10114000DC03002480B500AF054807F029FC034606
:101150001A46044B1A7000F007F800BF80BD00BFAC
:10116000A00400240400002480B590B000AF07F173
:1011700014032C220021184621F0FFF93B1D002208
:101180001A605A609A60DA601A4808F02BF8034631
:10119000194A1360174807F0FEFC0346174A13600C
:1011A00007F114031946134807F080FC0346002B8F
:1011B0000ED17B69124A1360FB69124A13603B6AC5
:1011C000114A13607B6A114A1360BB6A104A1360AC
:1011D0003B1D1946074807F0B9FC0346002B05D113
:1011E0007B680C4A1360BB680B4A136000BF403732
:1011F000BD4680BDA00400246404002468040024CB
:101200006C04002470040024740400247804002476
:101210007C040024800400248404002480B58EB063
:1012200000AF0346FB8007F110032422002118467B
:1012300021F0A3F907F1080300221A605A6040F276
:1012400006233B6100237B610023BB610823FB6114
:1012500000233B6200237B620023BB620023FB620E
:1012600000233B6307233B7200237B720023BB7286
:10127000FB88DBB2FB72FB881B0A9BB2DBB23B73C1
:1012800000237B730023BB730023FB7307F1080269
:1012900007F110031946114807F0ADFB034687F824
:1012A00037300F4B1B6801330D4A136097F8373006
:1012B000002B05D10B4B1B6801330A4A136004E075
:1012C000094B1B680133084A1360FFF74DFF97F87D
:1012D000373018463837BD4680BD00BFA004002413
:1012E000880400248C0400249004002480B500AFFE
:1012F0000020FFF793FF0346184680BD80B584B0F9
:1013000000AF0346FB80FB88002B02D10023FB814A
:1013100002E0FB885B42FB81FB891846FFF77EFFFA
:10132000034618461037BD4680BD80B582B000AF79
:101330000346FB80FB881846FFF770FF03461846FC
:101340000837BD4680BD000080B58CB000AF786026
:1013500007F1080324220021184621F00EF94FF46A
:101360004573BB600023FB6000233B6108237B6166
:101370000023BB610023FB6100233B6200237B62EF
:101380000023BB6207F108037A681946104807F08A
:1013900032FB034687F82F300E4B1B6801330D4A92
:1013A000136097F82F30002B05D10B4B1B680133CE
:1013B000094A136004E0094B1B680133074A1360B4
:1013C000FFF7D2FE97F82F3018463037BD4680BD64
:1013D000A0040024880400248C0400249004002429
:1013E00080B586B000AF0346FB8007F10C030022F6
:1013F0001A605A60FB88FB8201233B73FB8A1B0A3D
:101400009BB2DBB27B73FB8ADBB2BB7307F10C03CD
:101410001846FFF799FF034618461837BD4680BDAA
:1014200080B582B000AF3B4600221A605A603B464E
:101430001846FFF789FF034618460837BD4680BDAA
:1014400080B500AF0020FFF7CBFF0346184680BDF4
:1014500080B483B000AF87ED010AD7ED017AF5EED5
:10146000C07AF1EE10FA02DBD7ED017A03E0D7ED96
:10147000017AF1EE677AB0EE670A0C37BD465DF887
:10148000047B704780B485B000AF87ED030AC7EDD9
:10149000020A87ED011A97ED037AD7ED017AB4EECF
:1014A000E77AF1EE10FA01DD7B680BE097ED037A45
:1014B000D7ED027AB4EEE77AF1EE10FA01D5BB6807
:1014C00000E0FB6807EE903AB0EE670A1437BD46BD
:1014D0005DF8047B7047000080B584B000AF87EDF5
:1014E000010A97ED010AFFF7B3FF87ED030A9FEDAD
:1014F0001D1ADFED1D0A97ED030AFFF7C3FF87ED05
:10150000030A97ED037ADFED176AC7EE267A9FED9F
:10151000177A67EE877AC7ED027AD7ED027AF5EE91
:10152000C07AF1EE10FA01D8002316E0D7ED027A66
:101530009FED0E7AF4EEC77AF1EE10FA02DB4FF46B
:101540007A730AE0D7ED027AB6EE007A77EE877A00
:10155000FCEEE77A17EE903A9BB218461037BD467C
:1015600080BD00BF7B140E400000000000007A44E4
:1015700080B483B000AF87ED010AD7ED017AF5EEB4
:10158000C07AF1EE10FA0BDBD7ED017AB6EE007AF5
:1015900077EE877AFDEEE77A17EE903A1BB20AE013
:1015A000D7ED017AB6EE007A77EEC77AFDEEE77AEC
:1015B00017EE903A1BB218460C37BD465DF8047B17
:1015C0007047000080B588B000AF87ED030AC7ED13
:1015D000020A78607B68002B4AD09FED271ADFED66
:1015E000270A97ED030AFFF74DFF87ED070A97EDEE
:1015F000070AFFF72DFFF0EE407A9FED217AF4EE17
:10160000C77AF1EE10FA08D57B684FF000021A6035
:101610007B684FF000025A602BE0D7ED027A9FED15
:10162000197A27EE877AD7ED077AC7EE276AB0EEE8
:10163000660A21F037FF87ED060AD7ED067A9FED9F
:10164000127A67EE877AF1EE677AC7ED057A9FED39
:101650000F1ADFED0F0A97ED050AFFF713FF87ED6D
:10166000050A7B68FA691A607B687A695A6000E04B
:1016700000BF2037BD4680BD7B140E407B140EC0DA
:101680000AD7233CC3F5283FE12E65429A99A94128
:101690009A99A9C180B584B000AF87ED010AC7ED62
:1016A000000A07F108031846D7ED000A97ED010A72
:1016B000FFF788FFD7ED027AB0EE670A00F00AF86C
:1016C000D7ED037AB0EE670A00F04AF800BF103792
:1016D000BD4680BD80B584B000AF87ED010A9FEDA7
:1016E0001C1ADFED1C0A97ED010AFFF7CBFE87ED10
:1016F000030A194AFB68136097ED030AFFF7ECFE33
:1017000003467B817B89002B06D1FFF7EFFD034663
:101710001A46124B1A7017E0D7ED037AF5EEC07A2D
:10172000F1EE10FA08DD7B891846FFF7E7FD034666
:101730001A460A4B1A7007E07B891846FFF7F5FD39
:1017400003461A46054B1A7000BF1037BD4680BDD0
:101750007B140E407B140EC0940400249C040024CF
:1017600080B584B000AF87ED010A9FED101ADFED60
:10177000100A97ED010AFFF785FE87ED030A0D4A6F
:10178000FB68136097ED030AFFF7F2FE03467B81C7
:10179000B7F90A301846FFF723FE03461A46064BF0
:1017A0001A7000BF1037BD4680BD00BF9A99A9418D
:1017B0009A99A9C1980400249D04002480B582B0A0
:1017C00000AF254BD3F8D830234A43F00103C2F8C9
:1017D000D830214BD3F8D83003F001037B607B680D
:1017E000002205210B2003F051FE0B2003F068FEC0
:1017F000002205210C2003F049FE0C2003F060FEBE
:10180000002205210D2003F041FE0D2003F058FEBB
:10181000002205210E2003F039FE0E2003F050FEB9
:10182000002205210F2003F031FE0F2003F048FEB7
:1018300000220521102003F029FE102003F040FEB5
:1018400000220521112003F021FE112003F038FEB3
:1018500000BF0837BD4680BD0044025880B500AFC8
:101860002E4B2F4A1A602D4B00229A602B4B0022E0
:10187000DA602A4B01221A74284B00225A74274B33
:1018800000229A74254B05225A61244B02229A6148
:10189000224B0D22DA61214B02221A621F4B0122D8
:1018A0005A621E4B01229A621C4B0122DA621B4BC8
:1018B00001221A63194B00225A63184B08229A63BB
:1018C000164B0022DA63154B10221A64134B0422C4
:1018D0005A64124B00229A64104B0422DA640F4BB4
:1018E00000221A650D4B04225A650C4B00229A65A2
:1018F0000A4B0022DA65094B08221A66074B0022C0
:101900005A66064B04229A66044806F06BFE0346AC
:10191000002B01D000F06EFE00BF80BDA0040024AB
:1019200000A0004080B58AB000AF786007F11403D2
:1019300000221A605A609A60DA601A617B681B683C
:101940001E4A934236D11E4BD3F8EC301C4A43F466
:101950008073C2F8EC301A4BD3F8EC3003F4807388
:101960003B613B69164BD3F8E030154A43F0010365
:10197000C2F8E030124BD3F8E03003F00103FB6013
:10198000FB684FF4C0537B610223BB610023FB6102
:1019900003233B6209237B6207F1140319460948BC
:1019A00007F032FE00220521132003F06FFD132003
:1019B00003F086FD00BF2837BD4680BD00A0004073
:1019C000004402580000025880B500AF304A302170
:1019D00020200FF0BCFF03462E4A13602E4A04213C
:1019E00004200FF0B4FF03462C4A13602C4A042154
:1019F00004200FF0ACFF03462A4A13602A4A002154
:101A00002A480FF0F9FE0346294A1360294A0021AB
:101A100029480FF0F1FE0346284A1360284A0021A6
:101A200028480FF0E9FE0346274A1360274A0021A1
:101A300027480FF0E1FE0346264A1360264A00219C
:101A400026480FF0D9FE0346254A1360254A002197
:101A500025480FF0D1FE0346244A1360244A002192
:101A600024480FF0C9FE0346234A1360234A00218D
:101A700023480FF0C1FE0346224A1360224A002188
:101A800022480FF0B9FE0346214A136000BF80BD13
:101A9000103F020820A80024283F020874AE00244A
:101AA000403F0208D8AE0024CC3D0208191B0008B4
:101AB000E0050024F03D02081D1E0008203500242A
:101AC000143E0208CD1E000880450024383E02085E
:101AD000DF1E0008E05500245C3E0208F11E0008ED
:101AE000405E0024803E02085D1F0008A06E0024B6
:101AF000A43E02080D200008007F0024C83E020812
:101B00001F20000860870024EC3E020831200008F6
:101B1000C097002400000000B0B590B002AF78601C
:101B2000A14B0193A14B0093A14BA24AA2490120D2
:101B300015F0F2FC07F12003184615F021FC9F4B2D
:101B40003B629F4B7B629F4BBB629F4BFB6207F1EB
:101B50002003184615F022FC034683F00103DBB294
:101B6000002B04D04FF47A700FF0D7FEFAE707F19C
:101B70000C03184615F030FC05E015F061FC4FF43D
:101B8000FA700FF0CAFE07F10C03002200218F4803
:101B900015F0BEFA0346002BEFD105E015F050FC1E
:101BA0004FF4FA700FF0B9FE884B894A89498A4888
:101BB00015F0F8FA0346002BF0D105E015F040FCD3
:101BC0004FF4FA700FF0A9FE16F012FA0246834B9A
:101BD0008149834815F028FB0346002BEED105E030
:101BE00015F02EFC4FF4FA700FF097FE13F006F884
:101BF00002467C4B78497C4815F016FB0346002BC7
:101C0000EED105E015F01CFC4FF4FA700FF085FEE4
:101C100012F0F4FF0246754B6F49754815F03EFB14
:101C20000346002BEED1734B00221A6072494FF02D
:101C300000024FF00003C1E900236F494FF000029A
:101C40004FF00003C1E902236B494FF000024FF04F
:101C50000003C1E9042368494FF000024FF000037C
:101C6000C1E9062364494FF000024FF00003C1E9C7
:101C7000082361494FF000024FF00003C1E90A2335
:101C80005E4A5D4B14461D460FCD0FC40FCD0FC4E9
:101C900095E80F0084E80F0005E015F0D1FB4FF444
:101CA000FA700FF03AFE564B00933BA3D3E90023A2
:101CB0004649544815F02CFB0346002BEDD105E0B6
:101CC00015F0BEFB4FF4FA700FF027FE4E4B009359
:101CD00031A3D3E900233D494C4815F019FB0346D5
:101CE000002BEDD105E015F0ABFB4FF4FA700FF0CF
:101CF00014FE07F10C0303223449454814F0FCFE9E
:101D00000346002BEFD105E015F09AFB4FF4FA7073
:101D10000FF003FE002300933E4B374A34493C4802
:101D200014F066FF0346002BEED105E015F088FBAA
:101D30004FF4FA700FF0F1FD3249354814F096FF78
:101D40000346002BF2D105E015F07AFB4FF4FA7050
:101D50000FF0E3FD2D492E4814F088FF0346002BB9
:101D6000F2D10FA3D3E90023294815F099F978633C
:101D70007B6B002B09D07B6B022B06D0264B1B689C
:101D80000133254A136015F05BFB0A200FF0C5FDF7
:101D9000E7E700BFAFF3008000C2EB0B00000000DC
:101DA00080F0FA0200000000154A010869490108A4
:101DB00049490108F148010864B300242946010893
:101DC0006D460108A5460108114701083CAF0024F3
:101DD000A43B02087437020870AF0024843702085D
:101DE000A005002490370208A4050024A4370208A7
:101DF00078AF0024A805002480AF0024B00500249B
:101E000045200008B0AF002495200008B4AF00249E
:101E1000B8AF0024512100089C05002480B584B08F
:101E200000AF7860FFF78EF9FFF760FA03461A46B5
:101E30001F4B1A70FFF7F4FA03461A461D4B1A702F
:101E4000FFF7FEFA03461A461A4B1A700FF0C0FC51
:101E5000F860194B1B68002B06D0174B1B68FA68FB
:101E6000D31AB3F5FA7F07D9144B4FF000021A606A
:101E7000134B4FF000021A60104BD3ED007A104B59
:101E800093ED007AF0EE470AB0EE670AFFF702FC26
:101E90000C4B1B78DAB2064B1A700B4B1B78DAB27C
:101EA000044B1A70FFF760F90A200FF036FDCDE7FA
:101EB00040050024410500249405002488050024E1
:101EC0008C0500249C0400249D04002480B582B06D
:101ED00000AF78604FF47A700FF01FFDFAE780B51D
:101EE00082B000AF78604FF47A700FF016FDFAE719
:101EF00090B587B000AF78604FF4E130FEF714FF83
:101F000003461A46114B1A7007F10C0305211846B7
:101F1000FEF732FF0346002B10D10D4B1C4607F194
:101F20000C0393E8070084E807000A4B01221A70AB
:101F3000094B1B680133084A136002E0054B00227D
:101F40001A700A200FF0E9FCDEE700BF050000244C
:101F50007C0500247505002478050024B0B592B0F6
:101F600000AF786000F096FB00F00AFC786400F0A7
:101F700007FC38643A6C7B6C9A4239D000F00CFC58
:101F8000F8633B6C7B6407F10C031946F86B00F0B7
:101F900019FC0346002B28D007F1340207F10C038B
:101FA0001146184600F0B2FD134B1C4607F10C0514
:101FB0000FCD0FC40FCD0FC495E80300206004348B
:101FC00021800E4B07F1340292E8030018600433BD
:101FD00019800B4B01221A7097F82F20094B1A70A9
:101FE00097F83920084B1A7002E0054B00221A704E
:101FF0000A200FF092FCBAE7440500246C05002487
:1020000072050024730500247405002480B582B095
:1020100000AF78604FF47A700FF07FFCFAE780B57C
:1020200082B000AF78604FF47A700FF076FCFAE778
:1020300080B582B000AF78604FF47A700FF06DFC1D
:10204000FAE7000080B584B000AFF860C7E900236C
:1020500000220D490D4814F0C1F90346002B08D1A8
:10206000094B1B680133084A1360094B00221A60B0
:1020700006E0074B1B680133054A136015F0E0F9D1
:1020800000BF1037BD4680BDA8050024A005002470
:102090009805002480B584B000AFF860C7E900233C
:1020A000224BD3ED007AB7EEE77A214B83ED007B2C
:1020B000204BD3ED007AB7EEE77A1D4B83ED027B20
:1020C0001D4B1B6807EE903AB8EE677B184B83ED0B
:1020D000047B1A4B1B6807EE903AB8EE677B144BF3
:1020E00083ED067B164BD3ED007AB7EEE77A104B03
:1020F00083ED087B134BD3ED007AB7EEE77A0C4BF8
:1021000083ED0A7B00220A490F4814F067F9034661
:10211000002B06D00D4B1B6801330C4A136015F0E1
:102120008FF900BF1037BD4680BD00BF8805002471
:10213000B0050024940400246804002480040024D2
:10214000980400248C050024A4050024980500248C
:1021500080B584B000AF78607B68FB60FB68002BC3
:1021600019D0FB6893ED007BF7EEC77B0C4BC3EDFA
:10217000007AFB6893ED0A7BF7EEC77B094BC3ED52
:10218000007A0FF025FB0346074A1360074B1B68D4
:102190000133064A136000BF1037BD4680BD00BF43
:1021A000880500248C050024940500249005002453
:1021B00080B487B000AF304BD3F8E0302E4A43F004
:1021C0000203C2F8E0302C4BD3F8E03003F00203F6
:1021D0007B617B69284BD3F8E030274A43F0040346
:1021E000C2F8E030244BD3F8E03003F004033B6145
:1021F0003B69214BD3F8E0301F4A43F00803C2F893
:10220000E0301D4BD3F8E03003F00803FB60FB68BF
:10221000194BD3F8E030184A43F00103C2F8E0301C
:10222000154BD3F8E03003F00103BB60BB68124BE1
:10223000D3F8E030104A43F08003C2F8E0300E4B90
:10224000D3F8E03003F080037B607B680A4BD3F85F
:10225000E030094A43F02003C2F8E030064BD3F8DF
:10226000E03003F020033B603B6800BF1C37BD46F5
:102270005DF8047B704700BF0044025880B500AF92
:102280001B4B1C4A1A601A4B1B4A5A60184B0022FF
:102290009A60174B0122DA60154B00221A61144B29
:1022A00000225A61124B00229A61114B0022DA611E
:1022B0000F4B00221A620E4807F06AFC0346002BFF
:1022C00001D000F097F90021094807F0FDFC034612
:1022D000002B01D000F08EF90021054807F03FFDEA
:1022E0000346002B01D000F085F900BF80BD00BF80
:1022F00040B0002400540040B634900080B5BAB01D
:1023000000AF786007F1D40300221A605A609A6027
:10231000DA601A6107F11003C0220021184620F08C
:102320002CF97B681B68264A934245D14FF008027E
:102330004FF00003C7E904230023C7F8943007F1E6
:102340001003184608F0BAFD0346002B01D000F038
:1023500051F91C4BD3F8E0301A4A43F00203C2F89B
:10236000E030184BD3F8E03003F00203FB60FB6869
:10237000C023C7F8D4301223C7F8D8300023C7F8D9
:10238000DC300023C7F8E0300423C7F8E43007F15D
:10239000D40319460C4807F037F90A4BD3F8E83054
:1023A000084A43F40013C2F8E830064BD3F8E8308B
:1023B00003F40013BB60BB6800BFE837BD4680BDB7
:1023C00000540040004402580004025880B500AF99
:1023D00000F0D2F801F0B6FE00F022F800F09AF812
:1023E000FFF7E6FEFFF7EAF901F072F9FFF736FAB8
:1023F00000F084FF00F0D6FF01F002FA01F0C8F807
:10240000FEF7BCF9FFF73AFF01F00EF901F0ACF965
:102410000FF08EF9FFF7D8FA0FF0B0F900BFFDE723
:1024200080B59CB000AF07F124034C220021184670
:1024300020F0A3F83B1D20220021184620F09DF833
:10244000022007F0D9FC00233B60304BDB6A2F4AA7
:1024500023F00103D3622D4BDB6A03F001033B60E1
:102460002B4B9B692A4A43F440439361284B9B6959
:1024700003F440433B603B6800BF254B9B6903F47A
:102480000053B3F5005FF8D101237B624FF4803332
:10249000BB620223BB640223FB6405233B65A023CC
:1024A0007B650223BB650323FB6502233B66082390
:1024B0007B660023BB660023FB6607F124031846F6
:1024C00007F0D4FC0346002B01D000F093F83F2323
:1024D0007B600323BB600023FB6008233B61402338
:1024E0007B614023BB614FF48063FB6140233B620F
:1024F0003B1D0221184608F013F90346002B01D0BA
:1025000000F078F800BF7037BD4680BD0004005869
:102510000048025880B5B0B000AF3B46C022002151
:10252000184620F02AF84FF408224FF00003C7E9BC
:1025300000230223BB601023FB6002233B610523C1
:102540007B610223BB61C023FB6100233B6200234C
:102550007B624FF000533B670023C7F8A4303B4633
:10256000184608F0ABFC0346002B01D000F042F8FF
:1025700000BFC037BD4680BD80B584B000AF3B46CC
:1025800000221A605A609A60DA6002F0B5FF0123F7
:102590003B7000237B7000237B601F233B728723EB
:1025A0007B720023BB720023FB7201233B73012368
:1025B0007B730023BB730023FB733B46184602F07A
:1025C000D3FF042002F0B0FF00BF1037BD4680BD2E
:1025D00080B582B000AF78607B681B68044A934284
:1025E00001D101F0EBFD00BF0837BD4680BD00BF43
:1025F0000010004080B400AF72B600BF00BFFDE71E
:1026000080B485B000AF0346FB80FB88A3F57873E8
:10261000FB60FB6813F1310F04DBFB68312B01DC3D
:1026200000232BE0FB68002B0DDDFB684FF47A7272
:1026300002FB03F3144A82FB03121A445212DB1703
:10264000D31AFB600BE0FB684FF47A7202FB03F3D2
:102650000E4A82FB03121212DB17D31AFB60FB68CF
:10266000B3F57A7F02DD4FF47A73FB60FB6813F5F4
:102670007A7F01DA064BFB60FB681BB21846143701
:10268000BD465DF8047B7047A1000AA0FF04EC4F33
:1026900018FCFFFF80B582B000AF2D4B00221A70EE
:1026A0002C4B00221A702C4B00221A702B4B00224C
:1026B0001A702B4B00221A702A4B00221A602A4BE8
:1026C00000221A7000237B6016E0284A7B681344BE
:1026D00000221A70264A7B68134400221A70254A89
:1026E0007B68134400221A70234A7B68134400223B
:1026F0001A707B6801337B607B68182BE5D91F4813
:102700000BF0A4FF1D480BF023FD00F08DFF00220D
:102710000521352002F0BAFE352002F0D1FE174B1C
:10272000D3F88030002B0BD01922104913480BF03E
:10273000ABFE0346002B03D1084B01221A7004E0C4
:1027400019220B490D480BF0D3FD0837BD4680BD5B
:102750000AB100244CB100244DB10024E5B000249E
:10276000ECB00024E8B0002409B1002494B00024A7
:10277000B0B00024CCB00024F0B00024D0B20024CB
:1027800080B400AF034B1B681846BD465DF8047B60
:10279000704700BFE8B0002480B400AF064B1B7840
:1027A000DBB2002B01D0054B00E0054B1846BD46BF
:1027B0005DF8047B704700BFE5B0002494B00024AE
:1027C000CCB0002480B485B000AF786039607B68FD
:1027D000002B02D03B68002B01D1002390E17B68E5
:1027E0001B780F2B05D03B68002283F824200023A0
:1027F00086E17B6801331B781AB27B6802331B7851
:102800001BB21B021BB213431BB29BB2C3F30A03DE
:102810009AB23B681A807B6802331B78DB08DBB214
:102820001AB27B6803331B781BB25B011BB21343E4
:102830001BB29BB2C3F30A039AB23B685A807B680F
:1028400003331B789B09DBB21AB27B6804331B7815
:102850001BB29B001BB213431AB27B6805331B7873
:102860001BB29B021BB213431BB29BB2C3F30A03FE
:102870009AB23B689A807B6805331B785B08DBB2B1
:102880001AB27B6806331B781BB2DB011BB2134301
:102890001BB29BB2C3F30A039AB23B68DA807B682F
:1028A00006331B781B09DBB21AB27B6807331B782F
:1028B0001BB21B011BB213431BB29BB2C3F30A032F
:1028C0009AB23B681A817B6807331B78DB09DBB25D
:1028D0001AB27B6808331B781BB25B001BB2134330
:1028E0001AB27B6809331B781BB25B021BB213431D
:1028F0001BB29BB2C3F30A039AB23B685A817B684E
:1029000009331B789B08DBB21AB27B680A331B7849
:102910001BB29B011BB213431BB29BB2C3F30A034E
:102920009AB23B689A817B680A331B785B09DBB2F9
:102930001AB27B680B331B781BB2DB001BB213434C
:102940001BB29BB2C3F30A039AB23B68DA817B687D
:102950000C331B781AB27B680D331B781BB21B0239
:102960001BB213431BB29BB2C3F30A039AB23B6878
:102970001A827B680D331B78DB08DBB21AB27B68E6
:102980000E331B781BB25B011BB213431BB29BB20D
:10299000C3F30A039AB23B685A827B680E331B78F2
:1029A0009B09DBB21AB27B680F331B781BB29B000A
:1029B0001BB213431AB27B6810331B781BB29B0205
:1029C0001BB213431BB29BB2C3F30A039AB23B6818
:1029D0009A827B6810331B785B08DBB21AB27B6883
:1029E00011331B781BB2DB011BB213431BB29BB22A
:1029F000C3F30A039AB23B68DA827B6811331B780F
:102A00001B09DBB21AB27B6812331B781BB21B01A5
:102A10001BB213431BB29BB2C3F30A039AB23B68C7
:102A20001A837B6812331B78DB09DBB21AB27B682E
:102A300013331B781BB25B001BB213431AB27B68C3
:102A400014331B781BB25B021BB213431BB29BB245
:102A5000C3F30A039AB23B685A837B6814331B782A
:102A60009B08DBB21AB27B6815331B781BB29B0143
:102A70001BB213431BB29BB2C3F30A039AB23B6867
:102A80009A837B6815331B785B09DBB21AB27B68CB
:102A900016331B781BB2DB001BB213431BB29BB275
:102AA000C3F30A039AB23B68DA837B6817331B7857
:102AB000FB73FB7B03F00103DAB23B6883F8202051
:102AC000FB7B5B08DBB203F00103DAB23B6883F8FF
:102AD0002120FB7B9B08DBB203F00103DAB23B68E9
:102AE00083F82220FB7BDB08DBB203F00103DAB2C0
:102AF0003B6883F823203B68012283F824200123CC
:102B000018461437BD465DF8047B704780B584B025
:102B100000AF786039607B68002B34D03B68002BB5
:102B200031D07B681B881846FFF76AFD0346FB819E
:102B30007B685B881846FFF763FD0346BB813B68F3
:102B4000FA895A803B68BA891A807B681B89B3F579
:102B5000787F01D9012200E000223B681A713B68AE
:102B600000225A717B685B89B3F5787F02D93B6894
:102B700001225A717B6893F82330002B04D03B6804
:102B800001225A7100E000BF1037BD4680BD000031
:102B900080B586B000AF78607B686C4A934240F0A5
:102BA000D2806B4B1B78DBB2002B6AD0694B1B7851
:102BB0007B727B7A0D2B02D07B7A0A2B2DD1664B50
:102BC0001B78DBB2002B55D0644B1B78DBB2002B9B
:102BD00050D100237B610BE0614A7B691344197873
:102BE000604A7B6913440A461A707B6901337B6132
:102BF000594B1B78DBB21A467B699342ECD3564B98
:102C00001B78DBB21A46574B00219954524B0022D5
:102C10001A70524B01221A702CE07B7A082B02D0DA
:102C20007B7A7F2B0CD14C4B1B78DBB2002B22D054
:102C3000494B1B78DBB2013BDAB2474B1A701AE002
:102C40007B7A1F2B17D97B7A7E2B14D8424B1B78AB
:102C5000DBB21E2B0FD8404B1B78DBB21946404A23
:102C60007B7A53543C4B1B78DBB20133DAB23A4BDC
:102C70001A7000E000BF0122364934480BF038FBDF
:102C800061E0394B1B78DBB2002B40D0374B1B780F
:102C9000FB72374B1B78BB72BB7A002B09D1FB7AD6
:102CA0000F2B2ED1334AFB7A1370314B01221A704D
:102CB00027E0BB7A2F49FA7ACA54BB7A0133BB7238
:102CC000BB7A182B1AD900233B610BE0294A3B69D8
:102CD00013441978284A3B6913440A461A703B6921
:102CE00001333B613B69182BF0D9244B1B6801333E
:102CF000224A13601E4B00221A7002E01C4ABB7A63
:102D000013700122194911480BF0F2FA1BE000235D
:102D1000FB600BE01A4AFB6813441978164AFB68FB
:102D200013440A461A70FB680133FB60FB68182BDA
:102D3000F0D9124B1B680133104A13601922104955
:102D400002480BF0D5FA1837BD4680BDD0B200243A
:102D50000AB100240BB100244CB100244DB1002471
:102D60000CB100242CB10024ECB00024EDB0002400
:102D700009B10024F0B00024CCB00024E8B0002455
:102D8000B0B0002480B582B000AF78607B68084A9C
:102D9000934209D1074B1B78DBB2002B04D11922D7
:102DA000054903480BF0A4FA00BF0837BD4680BDB3
:102DB000D0B20024E5B00024B0B0002480B500AF4C
:102DC00002480BF0D5FD00BF80BD00BFD0B200248B
:102DD00080B582B000AF0C4BD3F8F4300A4A43F010
:102DE0000203C2F8F430084BD3F8F43003F00203C6
:102DF0007B607B6800220F216FF0010002F046FB30
:102E000000BF0837BD4680BD0044025880B590B071
:102E100000AF78607B680F2B27D8002279683620B6
:102E200002F034FB362002F04BFB294A7B6813602A
:102E3000284BD3F8E830274A43F01003C2F8E830B3
:102E4000244BD3F8E83003F01003FB60FB6807F174
:102E5000100207F114031146184607F0EDFFBB6A94
:102E6000BB63BB6B002B06D101E001232BE007F015
:102E7000B7FFF86304E007F0B3FF03465B00FB63B2
:102E8000FB6B154AA2FB03239B0C013B7B63134B9B
:102E9000134A1A60114B40F2E732DA600F4A7B6B3B
:102EA00053600E4B00221A610C4B00229A600B48B3
:102EB0000AF002FD0346002B04D108480AF05EFD2B
:102EC000034600E0012318464037BD4680BD00BFE1
:102ED000140000240044025883DE1B4350B1002438
:102EE0000010004080B400AF00BFFDE780B400AF29
:102EF00000BFFDE780B400AF00BFFDE780B400AFC6
:102F000000BFFDE780B400AF00BFFDE780B400AFB5
:102F100000BFBD465DF8047B7047000080B500AF80
:102F2000024804F041F800BF80BD00BF10B6002485
:102F300080B500AF024804F037F800BF80BD00BF85
:102F400088B6002480B500AF024804F02DF800BF19
:102F500080BD00BF00B7002480B500AF024804F078
:102F600023F800BF80BD00BF78B7002480B500AF54
:102F7000024804F019F800BF80BD00BF20B500244E
:102F800080B500AF024804F00FF800BF80BD00BF5D
:102F900098B5002480B500AF024804F005F800BFE2
:102FA00080BD00BF6003002480B500AF024805F07B
:102FB00005FE00BF80BD00BFA004002480B500AFA7
:102FC00002480BF0D5FC00BF80BD00BF64B30024F5
:102FD00080B500AFFEF774F800BF80BD80B500AFCC
:102FE00002480BF0C5FC00BF80BD00BF8CB40024BC
:102FF00080B500AF02480BF0BBFC00BF80BD00BF36
:103000003CB2002480B500AF02480AF0D5FD00BFF5
:1030100080BD00BF50B1002480B400AF012318462A
:10302000BD465DF8047B704780B582B000AF786024
:1030300039601FF035FB034616221A604FF0FF334C
:1030400018460837BD4680BD80B582B000AF7860B5
:103050004FF0FF317868FFF7E7FF00BFFDE780B56D
:1030600086B000AFF860B9607A6000237B610AE047
:10307000AFF300800146BB685A1CBA60CAB21A702E
:103080007B6901337B617A697B689A42F0DB7B68FC
:1030900018461837BD4680BD80B586B000AFF860D1
:1030A000B9607A6000237B6109E0BB685A1CBA6092
:1030B0001B781846AFF300807B6901337B617A6926
:1030C0007B689A42F1DB7B6818461837BD4680BDA5
:1030D00080B483B000AF78604FF0FF3318460C37F0
:1030E000BD465DF8047B704780B483B000AF786064
:1030F00039603B684FF400525A60002318460C3781
:10310000BD465DF8047B704780B483B000AF786043
:10311000012318460C37BD465DF8047B704780B428
:1031200085B000AFF860B9607A60002318461437A4
:10313000BD465DF8047B704780B586B000AF78600F
:10314000144A154BD31A7B617B693B61134B1B6897
:10315000002B02D1114B124A1A60104B1A687B687F
:1031600013443A699A4207D21FF09AFA03460C2296
:103170001A604FF0FF3309E0084B1B68FB60074BF8
:103180001A687B681344054A1360FB6818461837B1
:10319000BD4680BD0000082400040000A0B100244A
:1031A0003092012480B400AF434BD3F88830424AB8
:1031B00043F47003C2F88830404B1B6803F00F03E0
:1031C000062B07D83D4B1B6823F00F033B4A43F007
:1031D000070313603A4B1B68394A43F0010313603D
:1031E000374B00221A61364B1A683549354B13406C
:1031F0000B60324B1B6803F00803002B07D02F4BEA
:103200001B6823F00F032D4A43F0070313602C4B78
:1032100000229A612A4B0022DA61294B00221A62AD
:10322000274B294A9A62264B284ADA62244B284ABD
:103230001A63234B00225A63214B254A9A63204B81
:103240000022DA631E4B224A1A641D4B00225A6484
:103250001B4B1B681A4A23F480231360184B00226F
:103260001A661C4B1A681C4B1340B3F1005F02D264
:103270001A4B01221A60124BD3F8D43003F4805356
:10328000002B13D10E4BD3F8D4300D4A43F48053A6
:10329000C2F8D430124B43F2D2021A60084BD3F872
:1032A000D430074A23F48053C2F8D43000BFBD465F
:1032B0005DF8047B704700BF00ED00E00020005285
:1032C000004402587FEDF6EA000202020000FF010E
:1032D000800201010010005C0000FFFF0881005126
:1032E00000400052044BDA6842F00202DA605A6889
:1032F0009204FCD5704700BF0048025880B58CB0DE
:1033000000AF07F10C032422002118461FF035F905
:103310003B4600221A605A609A60214B4FF080426F
:103320001A601F4B00225A601D4B00229A601C4BF2
:103330004FF0FF32DA601A4B00221A61184B00225C
:103340009A610323FB6000233B6101237B6100231F
:10335000BB610423FB6100233B6201237B620023EA
:10336000BB620423FB6207F10C0319460C480AF008
:103370007DFB0346002B01D0FFF73CF900233B60A7
:103380000023BB603B46194605480AF0E5FD0346AD
:10339000002B01D0FFF72EF900BF3037BD4680BDAE
:1033A000A4B1002480B58CB000AF07F10C03242237
:1033B000002118461FF0E1F83B4600221A605A60CF
:1033C0009A60214B214A1A601F4B00225A601E4B03
:1033D00000229A601C4B4FF0FF32DA601A4B002239
:1033E0001A61194B00229A610323FB6000233B61A1
:1033F00001237B610023BB610423FB6100233B624B
:1034000001237B620023BB620423FB6207F10C03F0
:1034100019460D480AF02AFB0346002B01D0FFF79E
:10342000E9F800233B600023BB603B461946064891
:103430000AF092FD0346002B01D0FFF7DBF800BF36
:103440003037BD4680BD00BFF0B10024000C004005
:1034500080B58CB000AF786007F11C0300221A60C1
:103460005A609A60DA601A617B681B68B3F1804F1A
:103470004ED1434BD3F8E830414A43F00103C2F840
:10348000E8303F4BD3F8E83003F00103BB61BB6980
:103490003B4BD3F8E0303A4A43F00103C2F8E03046
:1034A000374BD3F8E03003F001037B617B69344B89
:1034B000D3F8E030324A43F00203C2F8E030304B38
:1034C000D3F8E03003F002033B613B694FF4004363
:1034D000FB6102233B6201237B620023BB62012369
:1034E000FB6207F11C031946264806F08DF80823F5
:1034F000FB6102233B6201237B620023BB62012349
:10350000FB6207F11C0319461F4806F07DF832E004
:103510007B681B681D4A93422DD1194BD3F8E830C4
:10352000174A43F00803C2F8E830154BD3F8E830E7
:1035300003F00803FB60FB68114BD3F8E030104A3E
:1035400043F00103C2F8E0300D4BD3F8E03003F054
:103550000103BB60BB680323FB6102233B620123C1
:103560007B620023BB620223FB6207F11C03194646
:10357000044806F049F800BF3037BD4680BD00BFA3
:10358000004402580000025800040258000C004099
:1035900080B500AF224B234A1A60214B4FF41652DC
:1035A0005A601F4B00229A601D4B0022DA601C4BB0
:1035B00000221A611A4B0C225A61194B00229A619F
:1035C000174B0022DA61164B00221A62144B0022BC
:1035D0005A62134B00229A6211480AF069FD0346B1
:1035E000002B01D0FFF706F800210D480DF06BFF0E
:1035F0000346002B01D0FEF7FDFF002108480DF027
:10360000A0FF0346002B01D0FEF7F4FF04480DF0A5
:1036100021FF0346002B01D0FEF7ECFF00BF80BD69
:103620003CB20024004C004080B500AF254B264A38
:103630001A60244B254A5A60224B4FF480529A60FC
:10364000204B4FF40052DA601E4B4FF480621A6137
:103650001C4B0C225A611B4B00229A61194B002211
:10366000DA61184B00221A62164B00225A62154B7F
:1036700002229A62134B4FF480321A6311480AF007
:1036800017FD0346002B01D0FEF7B4FF00210D48C3
:103690000DF019FF0346002B01D0FEF7ABFF002110
:1036A00008480DF04EFF0346002B01D0FEF7A2FFA5
:1036B00004480DF0CFFE0346002B01D0FEF79AFF21
:1036C00000BF80BDD0B2002400500040A0860100A1
:1036D00080B500AF224B234A1A60214B4FF4E132F0
:1036E0005A601F4B00229A601D4B0022DA601C4B6F
:1036F00000221A611A4B0C225A61194B00229A615E
:10370000174B0022DA61164B00221A62144B00227A
:103710005A62134B00229A6211480AF0C9FC034610
:10372000002B01D0FEF766FF00210D480DF0CBFE07
:103730000346002B01D0FEF75DFF002108480DF085
:1037400000FF0346002B01D0FEF754FF04480DF0A4
:1037500081FE0346002B01D0FEF74CFF00BF80BD69
:1037600064B300240010014080B500AF224B234A0F
:103770001A60214B4FF4E1325A601F4B00229A60CD
:103780001D4B0022DA601C4B00221A611A4B0C22DE
:103790005A61194B00229A61174B0022DA61164BCD
:1037A00000221A62144B00225A62134B00229A62C2
:1037B00011480AF07DFC0346002B01D0FEF71AFFEA
:1037C00000210D480DF07FFE0346002B01D0FEF7CF
:1037D00011FF002108480DF0B4FE0346002B01D074
:1037E000FEF708FF04480DF035FE0346002B01D01C
:1037F000FEF700FF00BF80BDF8B300240044004086
:1038000080B500AF224B234A1A60214B4FF4E132BE
:103810005A601F4B00229A601D4B0022DA601C4B3D
:1038200000221A611A4B0C225A61194B00229A612C
:10383000174B0022DA61164B00221A62144B002249
:103840005A62134B00229A6211480AF031FC034677
:10385000002B01D0FEF7CEFE00210D480DF033FE07
:103860000346002B01D0FEF7C5FE002108480DF0ED
:1038700068FE0346002B01D0FEF7BCFE04480DF0A5
:10388000E9FD0346002B01D0FEF7B4FE00BF80BD6A
:103890008CB400240048004080B5C4B000AF07F5E8
:1038A0008873A3F58673186007F1FC0300221A6081
:1038B0005A609A60DA601A6107F13803C022002169
:1038C00018461EF05AFE07F58873A3F586731B6829
:1038D0001B689A4A934240F0BC804FF002024FF0BE
:1038E0000003C7E90E230023C7F8B03007F13803FF
:1038F000184607F0E3FA0346002B01D0FEF77AFEE4
:103900008F4BD3F8E8308E4A43F40023C2F8E830F6
:103910008B4BD3F8E83003F400237B637B6B884B3D
:10392000D3F8E030864A43F00803C2F8E030844B15
:10393000D3F8E03003F008033B633B6B0323C7F885
:10394000FC300223C7F800310023C7F804310023FC
:10395000C7F808310823C7F80C3107F1FC031946F2
:10396000784805F051FE784B784A1A60764B3F2232
:103970005A60754B00229A60734B0022DA60724BDA
:103980004FF480621A61704B00225A616E4B002224
:103990009A616D4B4FF48072DA616B4B4FF4803259
:1039A0001A62694B00225A62674801F01DFE034605
:1039B000002B01D0FEF71EFE07F58873A3F5867372
:1039C0001B68614AC3F880205F4A07F58873A3F536
:1039D00086731B6893635E4B5E4A1A605C4B4022A1
:1039E0005A605B4B40229A60594B0022DA60584B78
:1039F0004FF480621A61564B00225A61544B0022E8
:103A00009A61534B0022DA61514B00221A62504BEB
:103A100000225A624E4801F0E7FD0346002B01D018
:103A2000FEF7E8FD07F58873A3F586731B68484A1F
:103A3000DA67474A07F58873A3F586731B689363B3
:103A400000220621342001F021FD342001F038FD50
:103A50008FE207F58873A3F586731B681B683E4ADF
:103A600093427FD14FF002024FF00003C7E90E23CB
:103A70000023C7F8B03007F13803184607F01EFAE4
:103A80000346002B01D0FEF7B5FD2D4BD3F8E830EF
:103A90002B4A43F48013C2F8E830294BD3F8E830BE
:103AA00003F48013FB62FB6A254BD3F8E030244A11
:103AB00043F00403C2F8E030214BD3F8E03003F0C8
:103AC0000403BB62BB6A1E4BD3F8E0301C4A43F0D0
:103AD0000203C2F8E0301A4BD3F8E03003F00203DF
:103AE0007B627B6A4FF48053C7F8FC300223C7F82F
:103AF00000310023C7F804310023C7F80831082338
:103B0000C7F80C3107F1FC031946144805F07CFD99
:103B10002023C7F8FC300223C7F800310023C7F880
:103B200004310023C7F808310E23C7F80C3107F120
:103B3000FC0319460A4805F067FD1AE2004C0040F4
:103B400000440258000C025820B5002470000240C6
:103B500098B5002488000240005000400008025838
:103B60000004025807F58873A3F586731B681B6869
:103B70008C4A934240F0BE804FF001024FF00003A8
:103B8000C7E90E230023C7F8B43007F138031846FD
:103B900007F094F90346002B01D0FEF72BFD824B72
:103BA000D3F8F030804A43F01003C2F8F0307E4B77
:103BB000D3F8F03003F010033B623B6A7A4BD3F842
:103BC000E030794A43F00103C2F8E030764BD3F895
:103BD000E03003F00103FB61FB694FF4C063C7F8F9
:103BE000FC300223C7F800310023C7F8043100235A
:103BF000C7F808310723C7F80C3107F1FC03194651
:103C00006A4805F001FD6A4B6A4A1A60684B29222E
:103C10005A60674B00229A60654B0022DA60644B61
:103C20004FF480621A61624B00225A61604B00229D
:103C30009A615F4B4FF48072DA615D4B4FF4403212
:103C40001A625B4B00225A62594801F0CDFC0346D0
:103C5000002B01D0FEF7CEFC07F58873A3F5867321
:103C60001B68534AC3F88020514A07F58873A3F5AF
:103C700086731B689363504B504A1A604E4B2A223E
:103C80005A604D4B40229A604B4B0022DA604A4BFF
:103C90004FF480621A61484B00225A61464B002261
:103CA0009A61454B0022DA61434B4FF440321A626D
:103CB000414B00225A62404801F096FC0346002B1B
:103CC00001D0FEF797FC07F58873A3F586731B6890
:103CD000394ADA67384A07F58873A3F586731B6893
:103CE000936300220521252001F0D0FB252001F05F
:103CF000E7FB3EE107F58873A3F586731B681B6835
:103D00002F4A93425ED14FF002024FF00003C7E901
:103D10000E230023C7F8B03007F13803184607F028
:103D2000CDF80346002B01D0FEF764FC1E4BD3F800
:103D3000E8301D4A43F40033C2F8E8301A4BD3F898
:103D4000E83003F40033BB61BB69174BD3F8E030B4
:103D5000154A43F00103C2F8E030134BD3F8E030CA
:103D600003F001037B617B690C23C7F8FC3002235D
:103D7000C7F800310023C7F804310023C7F8083121
:103D80000723C7F80C3107F1FC031946074805F073
:103D90003BFC00220521262001F078FB262001F0C3
:103DA0008FFBE6E00010014000440258000002587A
:103DB00010B600241000024088B6002428000240FB
:103DC0000044004007F58873A3F586731B681B68E1
:103DD0006A4A934240F0CD804FF002024FF0000358
:103DE000C7E90E230023C7F8B03007F1380318469F
:103DF00007F064F80346002B01D0FEF7FBFB604B95
:103E0000D3F8E8305E4A43F48023C2F8E8305C4BD4
:103E1000D3F8E83003F4802207F58873A3F58073A4
:103E20001A6007F58873A3F580731B68544BD3F8A9
:103E3000E030534A43F00403C2F8E030504BD3F86B
:103E4000E03003F0040207F58873A3F582731A606B
:103E500007F58873A3F582731B684FF44063C7F8B6
:103E6000FC300223C7F800310023C7F804310023D7
:103E7000C7F808310723C7F80C3107F1FC031946CE
:103E8000404805F0C1FB404B404A1A603E4B2D2292
:103E90005A603D4B00229A603B4B0022DA603A4B5D
:103EA0004FF480621A61384B00225A61364B00226F
:103EB0009A61354B4FF48072DA61334B4FF4003224
:103EC0001A62314B00225A622F4801F08DFB0346E3
:103ED000002B01D0FEF78EFB07F58873A3F58673E0
:103EE0001B68294AC3F88020274A07F58873A3F581
:103EF00086731B689363264B264A1A60244B2E2236
:103F00005A60234B40229A60214B0022DA60204BFA
:103F10004FF480621A611E4B00225A611C4B002232
:103F20009A611B4B0022DA61194B4FF480321A62FE
:103F3000174B00225A62164801F056FB0346002B2D
:103F400001D0FEF757FB07F58873A3F586731B684E
:103F50000F4ADA670E4A07F58873A3F586731B6864
:103F6000936300220621272001F090FA272001F018
:103F7000A7FA00BF07F58877BD4680BD004800401E
:103F8000004402580008025800B7002440000240D4
:103F900078B700245800024080B582B000AF786046
:103FA0007B681B68474A93421AD1474BD3F8E830E5
:103FB000454A23F40023C2F8E8300321434805F0C2
:103FC000DDFC7B68D3F88030184601F069FE7B6821
:103FD000DB6F184601F064FE342001F07FFA6CE0DC
:103FE0007B681B683A4A934211D1374BD3F8E830CB
:103FF000354A23F48013C2F8E8304FF48051354835
:1040000005F0BCFC2021344805F0B8FC55E07B6885
:104010001B68324A93421BD12B4BD3F8F0302A4A0B
:1040200023F01003C2F8F0304FF4C0612C4805F0C3
:10403000A5FC7B68D3F88030184601F031FE7B6820
:10404000DB6F184601F02CFE252001F047FA34E022
:104050007B681B68234A93420FD11B4BD3F8E8308F
:10406000194A23F40033C2F8E8300C211C4805F04B
:1040700085FC262001F032FA1FE07B681B681A4A93
:1040800093421AD1104BD3F8E8300F4A23F480231F
:10409000C2F8E8304FF440610E4805F06FFC7B68D1
:1040A000D3F88030184601F0FBFD7B68DB6F1846C3
:1040B00001F0F6FD272001F011FA00BF0837BD46D8
:1040C00080BD00BF004C004000440258000C025864
:1040D000005000400008025800040258001001403F
:1040E000000002580044004000480040DFF838D08B
:1040F000FFF7F8F8FFF756F80C480D490D4A002372
:1041000002E0D458C4500433C4188C42F9D30A4A8C
:104110000A4C002301E013600432A242FBD31EF0DC
:10412000C5FAFEF753F9FEE700000824000000245A
:10413000C402002488470208E00200242C920124D3
:10414000FEE7000080B582B000AF032001F093F9D4
:1041500006F09CFC0246154B9B691B0A03F00F03FB
:104160001349CB5C03F01F0322FA03F37B600F4B70
:104170009B6903F00F030E4AD35C03F01F037A68B8
:1041800022FA03F30B4A13600B4A7B6813600F207B
:10419000FEF73CFE0346002B01D0012302E0FEF7B0
:1041A00017FE002318460837BD4680BD004402585C
:1041B000583F0208100000240C00002480B400AF17
:1041C000064B1B781A46064B1B681344044A1360BF
:1041D00000BFBD465DF8047B704700BF1800002497
:1041E000F0B7002480B400AF034B1B681846BD46EF
:1041F0005DF8047B704700BFF0B7002480B400AFC7
:10420000034B1B681B0C1846BD465DF8047B7047CA
:104210000010005C80B483B000AF786039607B68C8
:104220009B6823F47C123B681A437B689A6000BF4A
:104230000C37BD465DF8047B704780B483B000AF97
:10424000786039607B689B6823F0E0723B681A43B2
:104250007B689A6000BF0C37BD465DF8047B7047F1
:1042600080B483B000AF78607B689B6803F0E07334
:1042700018460C37BD465DF8047B704780B487B0A4
:1042800000AF786039603B68C3F31303002B07D19C
:104290003B689B0E03F01F03012202FA03F315E0B3
:1042A0003B683B613B6993FAA3F3FB60FB687B616E
:1042B0007B69002B01D1202303E07B69B3FA83F3F0
:1042C000DBB203F01F03012202FA03F37A68D2691A
:1042D0001A437B68DA6100BF1C37BD465DF8047B7A
:1042E000704780B487B000AFF860B9607A603B6017
:1042F000FB6860331A46BB689B0013447B617B6993
:104300001B6803F000427B6803F0F8413B680B43F5
:104310001A437B691A6000BF1C37BD465DF8047BF9
:10432000704780B485B000AFF860B9607A60FB6810
:104330001B6923F4F042BB6803F01F03796801FA9C
:1043400003F31A43FB681A6100BF1437BD465DF8DA
:10435000047B704780B487B000AFF860B9607A60C2
:10436000FB6860331A46BB689B0013447B617B6922
:104370001B6823F000427B681A437B691A6000BF08
:104380001C37BD465DF8047B704780B487B000AF32
:10439000F860B9607A60FB6830331A46BB681B0A64
:1043A0009B0003F00C0313447B617B691A68BB68B4
:1043B00003F01F031F2101FA03F3DB431A407B685C
:1043C0009B0E03F01F01BB6803F01F0301FA03F308
:1043D0001A437B691A6000BF1C37BD465DF8047B39
:1043E000704780B487B000AFF860B9607A60FB684E
:1043F00014331A46BB685B0E9B0003F0040313449E
:104400007B617B691A68BB681B0D03F01F030721E2
:1044100001FA03F3DB431A40BB681B0D03F01F03D3
:10442000796801FA03F31A437B691A6000BF1C37ED
:10443000BD465DF8047B704780B485B000AFF8607E
:10444000B9607A60FB68D3F8C020BB68C3F313037C
:10445000DB431A407B6803F018030849D940BB6866
:104460000B40C3F313031A43FB68C3F8C02000BF1B
:104470001437BD465DF8047B704700BFFFFF0F0097
:1044800080B483B000AF78607B689A68044B1340B7
:104490007A68936000BF0C37BD465DF8047B7047B7
:1044A000C0FFFF5F80B483B000AF78607B689B681B
:1044B00003F00053B3F1005F01D1012300E00023BA
:1044C00018460C37BD465DF8047B704780B483B056
:1044D00000AF78607B689A68054B134043F08052C8
:1044E0007B689A6000BF0C37BD465DF8047B70475F
:1044F000C0FFFF6F80B483B000AF78607B689B68BB
:1045000003F08053B3F1805F01D1012300E0002369
:1045100018460C37BD465DF8047B704780B483B005
:1045200000AF78607B689B6803F00103012B01D129
:10453000012300E0002318460C37BD465DF8047BDC
:10454000704780B483B000AF78607B689B6803F0ED
:104550000403042B01D1012300E0002318460C378B
:10456000BD465DF8047B704780B483B000AF7860CF
:104570007B689B6803F00803082B01D1012300E04E
:10458000002318460C37BD465DF8047B70470000D9
:1045900090B589B000AF78600023FB770023BB6043
:1045A0007B68002B01D101238FE17B68DB68002B46
:1045B0007B685B6D002B09D17868FCF76BF97B6831
:1045C00000229A657B68002283F850207B681B6874
:1045D0001846FFF767FF0346002B04D07B681B6873
:1045E0001846FFF74DFF7B681B681846FFF782FFF0
:1045F0000346002B14D17B681B681846FFF766FF43
:10460000874B1B689B09874AA2FB03239B09013345
:10461000BB6002E0BB68013BBB60BB68002BF9D10B
:104620007B681B681846FFF765FF0346002B0DD11A
:104630007B685B6D43F010027B685A657B689B6DFD
:1046400043F001027B689A650123FB777B681B6856
:104650001846FFF776FF78617B685B6D03F0100307
:10466000002B40F029817B69002B40F025817B687D
:104670005B6D23F4817343F002027B685A657B68AB
:104680001B681846FFF74AFF0346002B36D17B68AC
:104690001B68654A934204D07B681B68634A934257
:1046A0000ED16148FFF73AFF04466048FFF736FF36
:1046B00003462343002B0CBF01230023DBB208E099
:1046C0005B48FFF72BFF0346002B0CBF01230023A1
:1046D000DBB2002B12D07B681B68534A934204D094
:1046E0007B681B68514A934201D1524A00E0524A0A
:1046F0007B685B6819461046FFF78CFDFFF77EFD6F
:10470000034641F20302934214D97B689B68102B45
:1047100010D17B685B7D5A037B681B6B1A437B68F7
:104720009B681A437B681B7F1B04134343F00C03F5
:10473000BB610DE07B685B7D5A037B681B6B1A4392
:104740007B689B681A437B681B7F1B041343BB6118
:104750007B681B7F012B06D17B681B6A013B5B04D6
:10476000BA691343BB617B685B6A002B09D07B6825
:104770005B6A03F478727B689B6A1343BA691343DC
:10478000BB617B681B68DA682C4B13407A6812683F
:10479000B9690B43D3607B681B681846FFF7D1FEED
:1047A00038617B681B681846FFF7DEFEF8603B69DE
:1047B000002B5FD1FB68002B5CD17B681B7D9A03CB
:1047C0007B68DB6A1343BB617B681B68DA681C4B40
:1047D00013407A681268B9690B43D3607B6893F819
:1047E0003830012B30D17B685B6A002B7B681B68FB
:1047F0001A69144B13407A68D26B013A11047A6833
:10480000126C11437A68526C11437A68926C0A43B5
:104810001A437B681B6842F001021A611CE000BF6A
:104820000C000024632D3E050020024000210240C0
:1048300000600258002302400063025803C0F0FFEA
:10484000FCBFFFFF1EF800FC7B681B681A697B68D1
:104850001B6822F001021A617B681B681B6923F048
:1048600070417B685A6B7B681B680A431A617868E1
:1048700000F020FB7B68DB68012B0CD17B681B6898
:104880001B6B23F00F017B689B695A1E7B681B68BA
:104890000A431A6307E07B681B681A6B7B681B6816
:1048A00022F00F021A637B685B6D23F0030343F071
:1048B00001027B685A6507E07B685B6D43F010027C
:1048C0007B685A650123FB77FB7F18462437BD467A
:1048D00090BD00BF90B58DB000AF78603960002307
:1048E00087F82F300023FB603B68DB68654A934202
:1048F0007B6893F85030012B01D10223C7E27B681B
:10490000012283F850207B681B681846FFF719FEC8
:104910000346002B40F0AC823B681B68002B2CDB6D
:104920003B681B68C3F31303002B08D13B681B686B
:104930009B0E03F01F03012202FA03F316E03B680B
:104940001B687B617B6993FAA3F33B613B69BB61A5
:10495000BB69002B01D1202303E0BB69B3FA83F3C9
:10496000DBB203F01F03012202FA03F37A68126834
:10497000D1697A6812680B43D3617B6818683B6819
:1049800059683B681B681A46FFF7FFFC7B681B6889
:104990001846FFF7D6FDB8627B681B681846FFF71C
:1049A000E3FD7862BB6A002B40F0B8807B6A002B85
:1049B00040F0B4807B6818683B6819683B689B6866
:1049C0001A46FFF70EFD304B1B6803F07043B3F13E
:1049D000805F0BD13B685A697B681B68DB689B086A
:1049E00003F007035B0002FA03F31DE07B681B681A
:1049F000DB6803F01003002B0BD13B685A697B681E
:104A00001B68DB689B0803F007035B0002FA03F3F3
:104A10000AE03B685A697B681B68DB689B0803F007
:104A200004035B0002FA03F33B623B681B69042B3F
:104A30002CD07B6818683B6819693B681A683B6A28
:104A4000FFF74FFC7B6818683B6819693B685B7E21
:104A5000012B02D14FF0004300E000231A46FFF77C
:104A600079FC7B6818683B6819693B681B7E012BE1
:104A700002D14FF4006300E000231A46FFF751FC17
:104A80004CE000BF0000FF470010005C7B681B6823
:104A90001B6E03F0F8423B681B689B069A4207D1E5
:104AA0007B681B681A6E7B681B6822F000421A66DE
:104AB0007B681B685B6E03F0F8423B681B689B06D3
:104AC0009A4207D17B681B685A6E7B681B6822F08C
:104AD00000425A667B681B689B6E03F0F8423B6895
:104AE0001B689B069A4207D17B681B689A6E7B689D
:104AF0001B6822F000429A667B681B68DB6E03F03D
:104B0000F8423B681B689B069A4207D17B681B688A
:104B1000DA6E7B681B6822F00042DA667B681B68ED
:104B20001846FFF7FBFC0346002B40F0AA817B6888
:104B300018683B6819683B68DB681A46FFF77CFC1D
:104B40003B68DB68874A934240F09A807B681A682A
:104B50007B681B6884498B4247D13B681B6883494B
:104B60008B4240D03B681B6881498B4239D03B68FF
:104B70001B6880498B4232D03B681B687E498B4260
:104B80002BD03B681B687D498B4224D03B681B6857
:104B90007B498B421DD03B681B687A498B4216D0FB
:104BA0003B681B6878498B420FD03B681B6877498C
:104BB0008B4208D03B681B6875498B4201D1754B0D
:104BC0005AE0002358E0744B56E0744B54E06E4BAF
:104BD00052E06C4B50E0724B4EE0724B4CE0724B2B
:104BE0004AE0724B48E0012346E07B681B6870494D
:104BF0008B4240D13B681B685C498B4239D03B6893
:104C00001B685B498B4232D03B681B6859498B4219
:104C10002BD03B681B6858498B4224D03B681B68EB
:104C200056498B421DD03B681B6855498B4216D0B4
:104C30003B681B6853498B420FD03B681B68524945
:104C40008B4208D03B681B6851498B4201D1514BC4
:104C500012E0002310E0514B0EE04B4B0CE0494BAF
:104C60000AE04F4B08E04F4B06E04F4B04E04F4B40
:104C700002E0012300E0002319461046FFF7FEFA88
:104C80003B681B68002B80F2FC807B681B68364AFF
:104C9000934204D07B681B68454A934201D1454B3F
:104CA00000E0454B1846FFF7DBFAF8617B681B68AC
:104CB0002D4A934204D07B681B683D4A93420ED133
:104CC0002948FFF72BFC04463948FFF727FC034629
:104CD0002343002B0CBF01230023DBB208E037483D
:104CE000FFF71CFC0346002B0CBF01230023DBB2A3
:104CF000002B00F0B3803B681B68314A934265D1BA
:104D0000FB6903F40003002B60D17B681B682B4A0E
:104D1000934240F0B6807B681B68134A934204D0EC
:104D20007B681B68224A934201D1224A00E0224A52
:104D3000FB6943F4000319461046FFF77EFA214B46
:104D40001B689B09204AA2FB03239B0901335B00DC
:104D5000FB6002E0FB68013BFB60FB68002BF9D1C4
:104D60008FE000BF0000FF47002002400200300437
:104D7000040060080800900C1000C0102000F0141F
:104D80000004002A0008302E001060320000214389
:104D90000000844B0000B84F0000524700209036BE
:104DA0000002B025000180218000501D4000201924
:104DB00000210240002302400063025800600258B4
:104DC000000084CB0C000024632D3E053B681B686B
:104DD000314A93421ED1FB6903F08073002B19D135
:104DE0007B681B682D4A93424BD17B681B682C4A19
:104DF000934204D07B681B682A4A934201D12A4A15
:104E000000E02A4AFB6943F0807319461046FFF719
:104E100014FA36E03B681B68254A934231D1FB699E
:104E200003F48003002B2CD17B681B681B4A934240
:104E300027D17B681B681A4A934204D07B681B68A1
:104E4000184A934201D1184A00E0184AFB6943F41A
:104E5000800319461046FFF7F0F912E07B685B6D9E
:104E600043F020027B685A65012387F82F3008E061
:104E70007B685B6D43F020027B685A65012387F8ED
:104E80002F307B68002283F8502097F82F30184687
:104E90003437BD4690BD00BF000052C700600258C5
:104EA000002002400021024000230240006302581B
:104EB0000000B8CF80B584B000AF78607B681B6815
:104EC0007A4A934204D07B681B68794A934209D19D
:104ED000784B9B6803F44033002B14BF012300235D
:104EE000DBB208E0744B9B6803F44033002B14BF23
:104EF00001230023DBB2002B1CD005F041FFF8603A
:104F00007B685B68B3F5403F10D0B3F5403F73D882
:104F1000B3F5803F02D0B3F5003F6DD17B685B688D
:104F20001B0CFA68B2FBF3F3FB6068E0FB689B08BC
:104F3000FB6064E04FF400204FF0000107F0C8F977
:104F4000F8607B685B68B3F5301F51D0B3F5301F54
:104F500054D8B3F5201F47D0B3F5201F4ED8B3F572
:104F6000101F3DD0B3F5101F48D8B3F5001F33D044
:104F7000B3F5001F42D8B3F5E01F29D0B3F5E01F09
:104F80003CD8B3F5C01F1AD0B3F5C01F36D8B3F55F
:104F9000A01F14D0B3F5A01F30D8B3F5801F0ED0DA
:104FA000B3F5801F2AD8B3F5402F08D0B3F5402FB2
:104FB00024D8B3F5802F02D0B3F5002F1ED17B6823
:104FC0005B689B0C5B00FA68B2FBF3F3FB6016E0D6
:104FD000FB681B09FB6012E0FB685B09FB600EE0ED
:104FE000FB689B09FB600AE0FB68DB09FB6006E0ED
:104FF000FB681B0AFB6002E000BF00E000BFFFF798
:10500000FDF8034641F20302934215D8FB682B4A90
:10501000934208D97B681B689A687B681B6842F4D6
:1050200080729A603EE07B681B689A687B681B68A8
:1050300022F480729A6035E0FB685B08FB60FB68D5
:105040001F4A934208D87B681B689A687B681B6874
:1050500022F440729A6025E0FB681A4A93420AD80B
:105060007B681B689B6823F440727B681B6842F472
:1050700080729A6016E0FB68134A93420AD87B68F4
:105080001B689B6823F440727B681B6842F40072C3
:105090009A6007E07B681B689A687B681B6842F42B
:1050A00040729A6000BF1037BD4680BD00200240AC
:1050B000002102400023024000630258002D31010C
:1050C000105E5F0020BCBE0040787D0180B483B0DC
:1050D00000AF78607B689B6803F00103012B01D16E
:1050E000012300E0002318460C37BD465DF8047B21
:1050F000704780B483B000AF78607B689B6803F032
:105100000403042B01D1012300E0002318460C37CF
:10511000BD465DF8047B704790B59FB000AF7860E6
:105120003960002387F877307B6893F85030012B83
:1051300001D10223BEE07B68012283F850200023C6
:10514000FB6500233B667B681B685C4A934202D187
:105150005B4BBB6001E00023BB60BB68002B0BD145
:105160007B685B6D43F020027B685A657B68002298
:1051700083F8502001239DE0BB681846FFF7B9FF74
:1051800038677B681B681846FFF7B3FF0346002BA0
:105190007FD13B6F002B7CD17B681B68474A9342D1
:1051A00004D07B681B68464A934201D1454B00E01E
:1051B000454BFB663B681B68002B39D0FB6E9B6838
:1051C00023F440423B685B681A43FB6E9A607B683D
:1051D0001B683A4A934204D07B681B68384A934262
:1051E0000ED13648FFF772FF04463548FFF76EFFD1
:1051F00003462343002B0CBF01230023DBB208E04E
:105200003248FFF763FF0346002B0CBF0123002346
:10521000DBB2002B47D0FB6E9A682D4B13403A68E7
:1052200011683A6892680A431A43FB6E9A603AE042
:10523000FB6E9B6823F44042FB6E9A607B681B68A0
:105240001E4A934204D07B681B681D4A93420ED1CC
:105250001A48FFF73BFF04461948FFF737FF03469C
:105260002343002B0CBF01230023DBB208E01748C7
:10527000FFF72CFF0346002B0CBF01230023DBB2FA
:10528000002B10D0FB6E9A68114B1340FA6E93609E
:1052900009E07B685B6D43F020027B685A6501235F
:1052A00087F8773000E000BF7B68002283F8502049
:1052B00097F8773018467C37BD4690BD00200240F5
:1052C000002102400023024000630258006002589F
:1052D000E0F0FFFF80B485B000AF78607B6803F03A
:1052E0000703FB600B4BDB68BB60BA684FF6FF033C
:1052F0001340BB60FB681A02BB681A43064B13439A
:10530000BB60044ABB68D36000BF1437BD465DF87C
:10531000047B704700ED00E00000FA0580B400AFA8
:10532000044BDB681B0A03F007031846BD465DF813
:10533000047B704700ED00E080B483B000AF03460B
:10534000FB80B7F90630002B0BDBFB8803F01F0254
:105350000749B7F906305B09012000FA02F241F86B
:10536000232000BF0C37BD465DF8047B704700BFAB
:1053700000E100E080B483B000AF0346FB80B7F9E2
:105380000630002B12DBFB8803F01F020A49B7F935
:1053900006305B09012000FA02F2203341F8232095
:1053A000BFF34F8F00BFBFF36F8F00BF00BF0C373D
:1053B000BD465DF8047B704700E100E080B483B037
:1053C00000AF03463960FB80B7F90630002B0ADBDB
:1053D0003B68DAB20C49B7F906301201D2B20B447D
:1053E00083F800230AE03B68DAB20849FB8803F03F
:1053F0000F03043B1201D2B20B441A7600BF0C37E4
:10540000BD465DF8047B704700E100E000ED00E080
:1054100080B489B000AFF860B9607A60FB6803F0CF
:105420000703FB61FB69C3F10703042B28BF0423B7
:10543000BB61FB690433062B02D9FB69033B00E027
:1054400000237B614FF0FF32BB6902FA03F3DA43BA
:10545000BB681A407B699A404FF0FF317B6901FAC3
:1054600003F3D9437B680B40134318462437BD46EA
:105470005DF8047B704780B582B000AF78607868D3
:10548000FFF728FF00BF0837BD4680BD80B586B056
:1054900000AF0346B9607A60FB81FFF73FFF786198
:1054A0007A68B9687869FFF7B3FF0246B7F90E303A
:1054B00011461846FFF782FF00BF1837BD4680BD72
:1054C00080B582B000AF0346FB80B7F906301846BE
:1054D000FFF732FF00BF0837BD4680BD80B582B000
:1054E00000AF0346FB80B7F906301846FFF742FFCE
:1054F00000BF0837BD4680BD80B400AFBFF35F8FEB
:1055000000BF074B5B6A064A23F480335362054BA6
:1055100000225A6000BFBD465DF8047B704700BFA3
:1055200000ED00E090ED00E080B483B000AF786063
:105530000B4A7B6843F0010353600A4B5B6A094ADC
:1055400043F480335362BFF34F8F00BFBFF36F8FBD
:1055500000BF00BF0C37BD465DF8047B704700BF3D
:1055600090ED00E000ED00E080B483B000AF786023
:105570007B685A781B4B9A601A4B1B69194A23F0B7
:1055800001031361174A7B685B68D3607B681B7BF0
:105590001A077B68DB7A1B061A437B689B7ADB045D
:1055A0001A437B685B7B9B041A437B689B7B5B0491
:1055B0001A437B68DB7B1B041A437B685B7A1B0204
:1055C0001A437B681B7A5B0013437A681278114692
:1055D000044A0B43136100BF0C37BD465DF8047BE2
:1055E000704700BF90ED00E080B586B000AF7860F6
:1055F000FEF7F8FD38617B68002B01D1012316E32B
:105600007B681B68664A93424AD07B681B68654A80
:10561000934245D07B681B68634A934240D07B68C5
:105620001B68624A93423BD07B681B68604A934286
:1056300036D07B681B685F4A934231D07B681B6819
:105640005D4A93422CD07B681B685C4A934227D00A
:105650007B681B685A4A934222D07B681B68594A70
:1056600093421DD07B681B68574A934218D07B68D1
:105670001B68564A934213D07B681B68544A934276
:105680000ED07B681B68534A934209D07B681B6825
:10569000514A934204D07B681B68504A934201D11F
:1056A000012300E00023002B00F03B817B680222F5
:1056B00083F835207B68002283F834207B681B68E0
:1056C000374A93424AD07B681B68364A934245D09A
:1056D0007B681B68344A934240D07B681B68334A1E
:1056E00093423BD07B681B68314A934236D07B683B
:1056F0001B68304A934231D07B681B682E4A934224
:105700002CD07B681B682D4A934227D07B681B688E
:105710002B4A934222D07B681B682A4A93421DD0B1
:105720007B681B68284A934218D07B681B68274A0D
:10573000934213D07B681B68254A93420ED07B6846
:105740001B68244A934209D07B681B68224A934213
:1057500004D07B681B68214A934208D17B681B6890
:105760001A687B681B6822F001021A6007E07B68F8
:105770001B681A687B681B6822F001021A602FE020
:10578000FEF730FD02463B69D31A052B28D97B680A
:1057900020225A657B68032283F83520012346E2E4
:1057A0001000024028000240400002405800024021
:1057B0007000024088000240A0000240B800024091
:1057C00010040240280402404004024058040240F1
:1057D0007004024088040240A0040240B804024061
:1057E0007B681B681B6803F00103002BC8D17B6832
:1057F0001B681B687B617A69834B13407B617B6804
:105800009A687B68DB681A437B681B691A437B686C
:105810005B691A437B689B691A437B68DB691A439F
:105820007B681B6A13437A6913437B617B685B6AFD
:10583000042B07D17B68DA6A7B681B6B13437A6998
:1058400013437B61714B1A68714B1340B3F1005FD6
:1058500028D37B685B68282B03D97B685B682E2B79
:1058600017D97B685B683E2B03D97B685B68422B4A
:105870000FD97B685B68462B03D97B685B68482B34
:1058800007D97B685B684E2B05D97B685B68522B18
:1058900001D8012300E00023002B03D07B6943F4EF
:1058A00080137B617B681B687A691A607B681B6860
:1058B0005B697B617B6923F007037B617B685B6AC3
:1058C0007A6913437B617B685B6A042B17D17B6821
:1058D0009B6A7A6913437B617B68DB6A002B0ED07D
:1058E000786802F0F5FC0346002B08D07B68402264
:1058F0005A657B68012283F83520012397E17B6894
:105900001B687A695A61786802F030FC0346BB6014
:105910007B68DB6D03F01F033F229A40BB689A60EF
:10592000CDE07B681B683B4A934222D07B681B68B2
:10593000394A93421DD07B681B68384A934218D07D
:105940007B681B68364A934213D07B681B68354AD4
:1059500093420ED07B681B68334A934209D07B6820
:105960001B68324A934204D07B681B68304A9342DA
:1059700001D1012300E00023002B00F097807B6819
:105980001B68244A934221D07B681B68224A9342B9
:105990001CD07B681B68214A934217D07B681B6828
:1059A0001F4A934212D07B681B681E4A93420DD057
:1059B0007B681B681C4A934208D07B681B681B4AA3
:1059C000934203D07B681B68194A93427B6802228A
:1059D00083F835207B68002283F834207B681B68BD
:1059E0001B687B617A69134B13407B617B689B6802
:1059F000402B21D07B689B68802B02D14FF48043E1
:105A00001BE0002319E000BF3F8010FE0010005C87
:105A10000000FFFF085402581C540258305402582A
:105A200044540258585402586C5402588054025836
:105A3000945402580F00FEFF10237A68D268D208EF
:105A40001A437B681B69DB081A437B685B69DB08C8
:105A50001A437B689B69DB081A437B68DB69DB08B8
:105A60001A437B681B6A1B0913437A6913437B61E2
:105A70007B681B687A691A607B681B681A466E4BE4
:105A800013446E4AA2FB03231B099A007B68DA6564
:105A9000786802F06BFB0346FB607B68DB6D03F00C
:105AA0001F0301229A40FB685A6008E07B6840228D
:105AB0005A657B68032283F835200123B7E07B68B1
:105AC0001B685F4A934272D07B681B685D4A9342B1
:105AD0006DD07B681B685C4A934268D07B681B680A
